{
  "_format": "hh-sol-artifact-1",
  "contractName": "NFT",
  "sourceName": "contracts/NFT.sol",
  "abi": [
    {
      "inputs": [],
      "stateMutability": "nonpayable",
      "type": "constructor"
    },
    {
      "anonymous": false,
      "inputs": [
        {
          "indexed": true,
          "internalType": "address",
          "name": "account",
          "type": "address"
        },
        {
          "indexed": true,
          "internalType": "address",
          "name": "operator",
          "type": "address"
        },
        {
          "indexed": false,
          "internalType": "bool",
          "name": "approved",
          "type": "bool"
        }
      ],
      "name": "ApprovalForAll",
      "type": "event"
    },
    {
      "anonymous": false,
      "inputs": [
        {
          "indexed": true,
          "internalType": "address",
          "name": "operator",
          "type": "address"
        },
        {
          "indexed": true,
          "internalType": "address",
          "name": "from",
          "type": "address"
        },
        {
          "indexed": true,
          "internalType": "address",
          "name": "to",
          "type": "address"
        },
        {
          "indexed": false,
          "internalType": "uint256[]",
          "name": "ids",
          "type": "uint256[]"
        },
        {
          "indexed": false,
          "internalType": "uint256[]",
          "name": "values",
          "type": "uint256[]"
        }
      ],
      "name": "TransferBatch",
      "type": "event"
    },
    {
      "anonymous": false,
      "inputs": [
        {
          "indexed": true,
          "internalType": "address",
          "name": "operator",
          "type": "address"
        },
        {
          "indexed": true,
          "internalType": "address",
          "name": "from",
          "type": "address"
        },
        {
          "indexed": true,
          "internalType": "address",
          "name": "to",
          "type": "address"
        },
        {
          "indexed": false,
          "internalType": "uint256",
          "name": "id",
          "type": "uint256"
        },
        {
          "indexed": false,
          "internalType": "uint256",
          "name": "value",
          "type": "uint256"
        }
      ],
      "name": "TransferSingle",
      "type": "event"
    },
    {
      "anonymous": false,
      "inputs": [
        {
          "indexed": false,
          "internalType": "string",
          "name": "value",
          "type": "string"
        },
        {
          "indexed": true,
          "internalType": "uint256",
          "name": "id",
          "type": "uint256"
        }
      ],
      "name": "URI",
      "type": "event"
    },
    {
      "inputs": [
        {
          "internalType": "address",
          "name": "account",
          "type": "address"
        },
        {
          "internalType": "uint256",
          "name": "id",
          "type": "uint256"
        }
      ],
      "name": "balanceOf",
      "outputs": [
        {
          "internalType": "uint256",
          "name": "",
          "type": "uint256"
        }
      ],
      "stateMutability": "view",
      "type": "function"
    },
    {
      "inputs": [
        {
          "internalType": "address[]",
          "name": "accounts",
          "type": "address[]"
        },
        {
          "internalType": "uint256[]",
          "name": "ids",
          "type": "uint256[]"
        }
      ],
      "name": "balanceOfBatch",
      "outputs": [
        {
          "internalType": "uint256[]",
          "name": "",
          "type": "uint256[]"
        }
      ],
      "stateMutability": "view",
      "type": "function"
    },
    {
      "inputs": [],
      "name": "baseTokenURI",
      "outputs": [
        {
          "internalType": "string",
          "name": "",
          "type": "string"
        }
      ],
      "stateMutability": "view",
      "type": "function"
    },
    {
      "inputs": [
        {
          "internalType": "address",
          "name": "account",
          "type": "address"
        },
        {
          "internalType": "address",
          "name": "operator",
          "type": "address"
        }
      ],
      "name": "isApprovedForAll",
      "outputs": [
        {
          "internalType": "bool",
          "name": "",
          "type": "bool"
        }
      ],
      "stateMutability": "view",
      "type": "function"
    },
    {
      "inputs": [
        {
          "internalType": "address",
          "name": "recipient",
          "type": "address"
        }
      ],
      "name": "mintTo",
      "outputs": [
        {
          "internalType": "uint256",
          "name": "",
          "type": "uint256"
        }
      ],
      "stateMutability": "nonpayable",
      "type": "function"
    },
    {
      "inputs": [
        {
          "internalType": "address",
          "name": "from",
          "type": "address"
        },
        {
          "internalType": "address",
          "name": "to",
          "type": "address"
        },
        {
          "internalType": "uint256[]",
          "name": "ids",
          "type": "uint256[]"
        },
        {
          "internalType": "uint256[]",
          "name": "amounts",
          "type": "uint256[]"
        },
        {
          "internalType": "bytes",
          "name": "data",
          "type": "bytes"
        }
      ],
      "name": "safeBatchTransferFrom",
      "outputs": [],
      "stateMutability": "nonpayable",
      "type": "function"
    },
    {
      "inputs": [
        {
          "internalType": "address",
          "name": "from",
          "type": "address"
        },
        {
          "internalType": "address",
          "name": "to",
          "type": "address"
        },
        {
          "internalType": "uint256",
          "name": "id",
          "type": "uint256"
        },
        {
          "internalType": "uint256",
          "name": "amount",
          "type": "uint256"
        },
        {
          "internalType": "bytes",
          "name": "data",
          "type": "bytes"
        }
      ],
      "name": "safeTransferFrom",
      "outputs": [],
      "stateMutability": "nonpayable",
      "type": "function"
    },
    {
      "inputs": [
        {
          "internalType": "address",
          "name": "operator",
          "type": "address"
        },
        {
          "internalType": "bool",
          "name": "approved",
          "type": "bool"
        }
      ],
      "name": "setApprovalForAll",
      "outputs": [],
      "stateMutability": "nonpayable",
      "type": "function"
    },
    {
      "inputs": [
        {
          "internalType": "string",
          "name": "_baseTokenURI",
          "type": "string"
        }
      ],
      "name": "setBaseTokenURI",
      "outputs": [],
      "stateMutability": "nonpayable",
      "type": "function"
    },
    {
      "inputs": [
        {
          "internalType": "bytes4",
          "name": "interfaceId",
          "type": "bytes4"
        }
      ],
      "name": "supportsInterface",
      "outputs": [
        {
          "internalType": "bool",
          "name": "",
          "type": "bool"
        }
      ],
      "stateMutability": "view",
      "type": "function"
    },
    {
      "inputs": [
        {
          "internalType": "uint256",
          "name": "",
          "type": "uint256"
        }
      ],
      "name": "uri",
      "outputs": [
        {
          "internalType": "string",
          "name": "",
          "type": "string"
        }
      ],
      "stateMutability": "view",
      "type": "function"
    }
  ],
  "bytecode": "0x60806040523480156200001157600080fd5b5060048054620000219062000189565b80601f01602080910402602001604051908101604052809291908181526020018280546200004f9062000189565b8015620000a05780601f106200007457610100808354040283529160200191620000a0565b820191906000526020600020905b8154815290600101906020018083116200008257829003601f168201915b5050505050620000b681620000bd60201b60201c565b50620001ee565b8060029080519060200190620000d5929190620000d9565b5050565b828054620000e79062000189565b90600052602060002090601f0160209004810192826200010b576000855562000157565b82601f106200012657805160ff191683800117855562000157565b8280016001018555821562000157579182015b828111156200015657825182559160200191906001019062000139565b5b5090506200016691906200016a565b5090565b5b80821115620001855760008160009055506001016200016b565b5090565b60006002820490506001821680620001a257607f821691505b60208210811415620001b957620001b8620001bf565b5b50919050565b7f4e487b7100000000000000000000000000000000000000000000000000000000600052602260045260246000fd5b612bdc80620001fe6000396000f3fe608060405234801561001057600080fd5b50600436106100a85760003560e01c80634e1273f4116100715780634e1273f414610175578063755edd17146101a5578063a22cb465146101d5578063d547cfb7146101f1578063e985e9c51461020f578063f242432a1461023f576100a8565b8062fdd58e146100ad57806301ffc9a7146100dd5780630e89341c1461010d5780632eb2c2d61461013d57806330176e1314610159575b600080fd5b6100c760048036038101906100c29190611c75565b61025b565b6040516100d49190612336565b60405180910390f35b6100f760048036038101906100f29190611d1d565b610324565b6040516101049190612199565b60405180910390f35b61012760048036038101906101229190611db0565b610406565b60405161013491906121b4565b60405180910390f35b61015760048036038101906101529190611aeb565b61049a565b005b610173600480360381019061016e9190611d6f565b61053b565b005b61018f600480360381019061018a9190611cb1565b610555565b60405161019c9190612140565b60405180910390f35b6101bf60048036038101906101ba9190611a86565b610706565b6040516101cc9190612336565b60405180910390f35b6101ef60048036038101906101ea9190611c39565b61076b565b005b6101f9610781565b60405161020691906121b4565b60405180910390f35b61022960048036038101906102249190611aaf565b61080f565b6040516102369190612199565b60405180910390f35b61025960048036038101906102549190611baa565b6108a3565b005b60008073ffffffffffffffffffffffffffffffffffffffff168373ffffffffffffffffffffffffffffffffffffffff1614156102cc576040517f08c379a00000000000000000000000000000000000000000000000000000000081526004016102c390612216565b60405180910390fd5b60008083815260200190815260200160002060008473ffffffffffffffffffffffffffffffffffffffff1673ffffffffffffffffffffffffffffffffffffffff16815260200190815260200160002054905092915050565b60007fd9b67a26000000000000000000000000000000000000000000000000000000007bffffffffffffffffffffffffffffffffffffffffffffffffffffffff1916827bffffffffffffffffffffffffffffffffffffffffffffffffffffffff191614806103ef57507f0e89341c000000000000000000000000000000000000000000000000000000007bffffffffffffffffffffffffffffffffffffffffffffffffffffffff1916827bffffffffffffffffffffffffffffffffffffffffffffffffffffffff1916145b806103ff57506103fe82610944565b5b9050919050565b606060028054610415906125d6565b80601f0160208091040260200160405190810160405280929190818152602001828054610441906125d6565b801561048e5780601f106104635761010080835404028352916020019161048e565b820191906000526020600020905b81548152906001019060200180831161047157829003601f168201915b50505050509050919050565b6104a26109ae565b73ffffffffffffffffffffffffffffffffffffffff168573ffffffffffffffffffffffffffffffffffffffff1614806104e857506104e7856104e26109ae565b61080f565b5b610527576040517f08c379a000000000000000000000000000000000000000000000000000000000815260040161051e90612276565b60405180910390fd5b61053485858585856109b6565b5050505050565b806004908051906020019061055192919061177e565b5050565b6060815183511461059b576040517f08c379a0000000000000000000000000000000000000000000000000000000008152600401610592906122d6565b60405180910390fd5b6000835167ffffffffffffffff8111156105de577f4e487b7100000000000000000000000000000000000000000000000000000000600052604160045260246000fd5b60405190808252806020026020018201604052801561060c5781602001602082028036833780820191505090505b50905060005b84518110156106fb576106a5858281518110610657577f4e487b7100000000000000000000000000000000000000000000000000000000600052603260045260246000fd5b6020026020010151858381518110610698577f4e487b7100000000000000000000000000000000000000000000000000000000600052603260045260246000fd5b602002602001015161025b565b8282815181106106de577f4e487b7100000000000000000000000000000000000000000000000000000000600052603260045260246000fd5b602002602001018181525050806106f490612639565b9050610612565b508091505092915050565b60006107126003610d16565b600061071e6003610d2c565b9050610762838260016040518060400160405280600181526020017f2000000000000000000000000000000000000000000000000000000000000000815250610d3a565b80915050919050565b61077d6107766109ae565b8383610ed0565b5050565b6004805461078e906125d6565b80601f01602080910402602001604051908101604052809291908181526020018280546107ba906125d6565b80156108075780601f106107dc57610100808354040283529160200191610807565b820191906000526020600020905b8154815290600101906020018083116107ea57829003601f168201915b505050505081565b6000600160008473ffffffffffffffffffffffffffffffffffffffff1673ffffffffffffffffffffffffffffffffffffffff16815260200190815260200160002060008373ffffffffffffffffffffffffffffffffffffffff1673ffffffffffffffffffffffffffffffffffffffff16815260200190815260200160002060009054906101000a900460ff16905092915050565b6108ab6109ae565b73ffffffffffffffffffffffffffffffffffffffff168573ffffffffffffffffffffffffffffffffffffffff1614806108f157506108f0856108eb6109ae565b61080f565b5b610930576040517f08c379a000000000000000000000000000000000000000000000000000000000815260040161092790612236565b60405180910390fd5b61093d858585858561103d565b5050505050565b60007f01ffc9a7000000000000000000000000000000000000000000000000000000007bffffffffffffffffffffffffffffffffffffffffffffffffffffffff1916827bffffffffffffffffffffffffffffffffffffffffffffffffffffffff1916149050919050565b600033905090565b81518351146109fa576040517f08c379a00000000000000000000000000000000000000000000000000000000081526004016109f1906122f6565b60405180910390fd5b600073ffffffffffffffffffffffffffffffffffffffff168473ffffffffffffffffffffffffffffffffffffffff161415610a6a576040517f08c379a0000000000000000000000000000000000000000000000000000000008152600401610a6190612256565b60405180910390fd5b6000610a746109ae565b9050610a848187878787876112bf565b60005b8451811015610c81576000858281518110610acb577f4e487b7100000000000000000000000000000000000000000000000000000000600052603260045260246000fd5b602002602001015190506000858381518110610b10577f4e487b7100000000000000000000000000000000000000000000000000000000600052603260045260246000fd5b60200260200101519050600080600084815260200190815260200160002060008b73ffffffffffffffffffffffffffffffffffffffff1673ffffffffffffffffffffffffffffffffffffffff16815260200190815260200160002054905081811015610bb1576040517f08c379a0000000000000000000000000000000000000000000000000000000008152600401610ba890612296565b60405180910390fd5b81810360008085815260200190815260200160002060008c73ffffffffffffffffffffffffffffffffffffffff1673ffffffffffffffffffffffffffffffffffffffff168152602001908152602001600020819055508160008085815260200190815260200160002060008b73ffffffffffffffffffffffffffffffffffffffff1673ffffffffffffffffffffffffffffffffffffffff1681526020019081526020016000206000828254610c6691906124ca565b9250508190555050505080610c7a90612639565b9050610a87565b508473ffffffffffffffffffffffffffffffffffffffff168673ffffffffffffffffffffffffffffffffffffffff168273ffffffffffffffffffffffffffffffffffffffff167f4a39dc06d4c0dbc64b70af90fd698a233a518aa5d07e595d983b8c0526c8f7fb8787604051610cf8929190612162565b60405180910390a4610d0e8187878787876112c7565b505050505050565b6001816000016000828254019250508190555050565b600081600001549050919050565b600073ffffffffffffffffffffffffffffffffffffffff168473ffffffffffffffffffffffffffffffffffffffff161415610daa576040517f08c379a0000000000000000000000000000000000000000000000000000000008152600401610da190612316565b60405180910390fd5b6000610db46109ae565b9050610dd581600087610dc6886114ae565b610dcf886114ae565b876112bf565b8260008086815260200190815260200160002060008773ffffffffffffffffffffffffffffffffffffffff1673ffffffffffffffffffffffffffffffffffffffff1681526020019081526020016000206000828254610e3491906124ca565b925050819055508473ffffffffffffffffffffffffffffffffffffffff16600073ffffffffffffffffffffffffffffffffffffffff168273ffffffffffffffffffffffffffffffffffffffff167fc3d58168c5ae7397731d063d5bbf3d657854427343f4c083240f7aacaa2d0f628787604051610eb2929190612351565b60405180910390a4610ec981600087878787611574565b5050505050565b8173ffffffffffffffffffffffffffffffffffffffff168373ffffffffffffffffffffffffffffffffffffffff161415610f3f576040517f08c379a0000000000000000000000000000000000000000000000000000000008152600401610f36906122b6565b60405180910390fd5b80600160008573ffffffffffffffffffffffffffffffffffffffff1673ffffffffffffffffffffffffffffffffffffffff16815260200190815260200160002060008473ffffffffffffffffffffffffffffffffffffffff1673ffffffffffffffffffffffffffffffffffffffff16815260200190815260200160002060006101000a81548160ff0219169083151502179055508173ffffffffffffffffffffffffffffffffffffffff168373ffffffffffffffffffffffffffffffffffffffff167f17307eab39ab6107e8899845ad3d59bd9653f200f220920489ca2b5937696c31836040516110309190612199565b60405180910390a3505050565b600073ffffffffffffffffffffffffffffffffffffffff168473ffffffffffffffffffffffffffffffffffffffff1614156110ad576040517f08c379a00000000000000000000000000000000000000000000000000000000081526004016110a490612256565b60405180910390fd5b60006110b76109ae565b90506110d78187876110c8886114ae565b6110d1886114ae565b876112bf565b600080600086815260200190815260200160002060008873ffffffffffffffffffffffffffffffffffffffff1673ffffffffffffffffffffffffffffffffffffffff1681526020019081526020016000205490508381101561116e576040517f08c379a000000000000000000000000000000000000000000000000000000000815260040161116590612296565b60405180910390fd5b83810360008087815260200190815260200160002060008973ffffffffffffffffffffffffffffffffffffffff1673ffffffffffffffffffffffffffffffffffffffff168152602001908152602001600020819055508360008087815260200190815260200160002060008873ffffffffffffffffffffffffffffffffffffffff1673ffffffffffffffffffffffffffffffffffffffff168152602001908152602001600020600082825461122391906124ca565b925050819055508573ffffffffffffffffffffffffffffffffffffffff168773ffffffffffffffffffffffffffffffffffffffff168373ffffffffffffffffffffffffffffffffffffffff167fc3d58168c5ae7397731d063d5bbf3d657854427343f4c083240f7aacaa2d0f6288886040516112a0929190612351565b60405180910390a46112b6828888888888611574565b50505050505050565b505050505050565b6112e68473ffffffffffffffffffffffffffffffffffffffff1661175b565b156114a6578373ffffffffffffffffffffffffffffffffffffffff1663bc197c8187878686866040518663ffffffff1660e01b815260040161132c95949392919061207e565b602060405180830381600087803b15801561134657600080fd5b505af192505050801561137757506040513d601f19601f820116820180604052508101906113749190611d46565b60015b61141d5761138361270f565b806308c379a014156113e05750611398612ab4565b806113a357506113e2565b806040517f08c379a00000000000000000000000000000000000000000000000000000000081526004016113d791906121b4565b60405180910390fd5b505b6040517f08c379a0000000000000000000000000000000000000000000000000000000008152600401611414906121d6565b60405180910390fd5b63bc197c8160e01b7bffffffffffffffffffffffffffffffffffffffffffffffffffffffff1916817bffffffffffffffffffffffffffffffffffffffffffffffffffffffff1916146114a4576040517f08c379a000000000000000000000000000000000000000000000000000000000815260040161149b906121f6565b60405180910390fd5b505b505050505050565b60606000600167ffffffffffffffff8111156114f3577f4e487b7100000000000000000000000000000000000000000000000000000000600052604160045260246000fd5b6040519080825280602002602001820160405280156115215781602001602082028036833780820191505090505b509050828160008151811061155f577f4e487b7100000000000000000000000000000000000000000000000000000000600052603260045260246000fd5b60200260200101818152505080915050919050565b6115938473ffffffffffffffffffffffffffffffffffffffff1661175b565b15611753578373ffffffffffffffffffffffffffffffffffffffff1663f23a6e6187878686866040518663ffffffff1660e01b81526004016115d99594939291906120e6565b602060405180830381600087803b1580156115f357600080fd5b505af192505050801561162457506040513d601f19601f820116820180604052508101906116219190611d46565b60015b6116ca5761163061270f565b806308c379a0141561168d5750611645612ab4565b80611650575061168f565b806040517f08c379a000000000000000000000000000000000000000000000000000000000815260040161168491906121b4565b60405180910390fd5b505b6040517f08c379a00000000000000000000000000000000000000000000000000000000081526004016116c1906121d6565b60405180910390fd5b63f23a6e6160e01b7bffffffffffffffffffffffffffffffffffffffffffffffffffffffff1916817bffffffffffffffffffffffffffffffffffffffffffffffffffffffff191614611751576040517f08c379a0000000000000000000000000000000000000000000000000000000008152600401611748906121f6565b60405180910390fd5b505b505050505050565b6000808273ffffffffffffffffffffffffffffffffffffffff163b119050919050565b82805461178a906125d6565b90600052602060002090601f0160209004810192826117ac57600085556117f3565b82601f106117c557805160ff19168380011785556117f3565b828001600101855582156117f3579182015b828111156117f25782518255916020019190600101906117d7565b5b5090506118009190611804565b5090565b5b8082111561181d576000816000905550600101611805565b5090565b600061183461182f8461239f565b61237a565b9050808382526020820190508285602086028201111561185357600080fd5b60005b8581101561188357816118698882611975565b845260208401935060208301925050600181019050611856565b5050509392505050565b60006118a061189b846123cb565b61237a565b905080838252602082019050828560208602820111156118bf57600080fd5b60005b858110156118ef57816118d58882611a71565b8452602084019350602083019250506001810190506118c2565b5050509392505050565b600061190c611907846123f7565b61237a565b90508281526020810184848401111561192457600080fd5b61192f848285612594565b509392505050565b600061194a61194584612428565b61237a565b90508281526020810184848401111561196257600080fd5b61196d848285612594565b509392505050565b60008135905061198481612b4a565b92915050565b600082601f83011261199b57600080fd5b81356119ab848260208601611821565b91505092915050565b600082601f8301126119c557600080fd5b81356119d584826020860161188d565b91505092915050565b6000813590506119ed81612b61565b92915050565b600081359050611a0281612b78565b92915050565b600081519050611a1781612b78565b92915050565b600082601f830112611a2e57600080fd5b8135611a3e8482602086016118f9565b91505092915050565b600082601f830112611a5857600080fd5b8135611a68848260208601611937565b91505092915050565b600081359050611a8081612b8f565b92915050565b600060208284031215611a9857600080fd5b6000611aa684828501611975565b91505092915050565b60008060408385031215611ac257600080fd5b6000611ad085828601611975565b9250506020611ae185828601611975565b9150509250929050565b600080600080600060a08688031215611b0357600080fd5b6000611b1188828901611975565b9550506020611b2288828901611975565b945050604086013567ffffffffffffffff811115611b3f57600080fd5b611b4b888289016119b4565b935050606086013567ffffffffffffffff811115611b6857600080fd5b611b74888289016119b4565b925050608086013567ffffffffffffffff811115611b9157600080fd5b611b9d88828901611a1d565b9150509295509295909350565b600080600080600060a08688031215611bc257600080fd5b6000611bd088828901611975565b9550506020611be188828901611975565b9450506040611bf288828901611a71565b9350506060611c0388828901611a71565b925050608086013567ffffffffffffffff811115611c2057600080fd5b611c2c88828901611a1d565b9150509295509295909350565b60008060408385031215611c4c57600080fd5b6000611c5a85828601611975565b9250506020611c6b858286016119de565b9150509250929050565b60008060408385031215611c8857600080fd5b6000611c9685828601611975565b9250506020611ca785828601611a71565b9150509250929050565b60008060408385031215611cc457600080fd5b600083013567ffffffffffffffff811115611cde57600080fd5b611cea8582860161198a565b925050602083013567ffffffffffffffff811115611d0757600080fd5b611d13858286016119b4565b9150509250929050565b600060208284031215611d2f57600080fd5b6000611d3d848285016119f3565b91505092915050565b600060208284031215611d5857600080fd5b6000611d6684828501611a08565b91505092915050565b600060208284031215611d8157600080fd5b600082013567ffffffffffffffff811115611d9b57600080fd5b611da784828501611a47565b91505092915050565b600060208284031215611dc257600080fd5b6000611dd084828501611a71565b91505092915050565b6000611de58383612060565b60208301905092915050565b611dfa81612520565b82525050565b6000611e0b82612469565b611e158185612497565b9350611e2083612459565b8060005b83811015611e51578151611e388882611dd9565b9750611e438361248a565b925050600181019050611e24565b5085935050505092915050565b611e6781612532565b82525050565b6000611e7882612474565b611e8281856124a8565b9350611e928185602086016125a3565b611e9b81612731565b840191505092915050565b6000611eb18261247f565b611ebb81856124b9565b9350611ecb8185602086016125a3565b611ed481612731565b840191505092915050565b6000611eec6034836124b9565b9150611ef78261274f565b604082019050919050565b6000611f0f6028836124b9565b9150611f1a8261279e565b604082019050919050565b6000611f32602b836124b9565b9150611f3d826127ed565b604082019050919050565b6000611f556029836124b9565b9150611f608261283c565b604082019050919050565b6000611f786025836124b9565b9150611f838261288b565b604082019050919050565b6000611f9b6032836124b9565b9150611fa6826128da565b604082019050919050565b6000611fbe602a836124b9565b9150611fc982612929565b604082019050919050565b6000611fe16029836124b9565b9150611fec82612978565b604082019050919050565b60006120046029836124b9565b915061200f826129c7565b604082019050919050565b60006120276028836124b9565b915061203282612a16565b604082019050919050565b600061204a6021836124b9565b915061205582612a65565b604082019050919050565b6120698161258a565b82525050565b6120788161258a565b82525050565b600060a0820190506120936000830188611df1565b6120a06020830187611df1565b81810360408301526120b28186611e00565b905081810360608301526120c68185611e00565b905081810360808301526120da8184611e6d565b90509695505050505050565b600060a0820190506120fb6000830188611df1565b6121086020830187611df1565b612115604083018661206f565b612122606083018561206f565b81810360808301526121348184611e6d565b90509695505050505050565b6000602082019050818103600083015261215a8184611e00565b905092915050565b6000604082019050818103600083015261217c8185611e00565b905081810360208301526121908184611e00565b90509392505050565b60006020820190506121ae6000830184611e5e565b92915050565b600060208201905081810360008301526121ce8184611ea6565b905092915050565b600060208201905081810360008301526121ef81611edf565b9050919050565b6000602082019050818103600083015261220f81611f02565b9050919050565b6000602082019050818103600083015261222f81611f25565b9050919050565b6000602082019050818103600083015261224f81611f48565b9050919050565b6000602082019050818103600083015261226f81611f6b565b9050919050565b6000602082019050818103600083015261228f81611f8e565b9050919050565b600060208201905081810360008301526122af81611fb1565b9050919050565b600060208201905081810360008301526122cf81611fd4565b9050919050565b600060208201905081810360008301526122ef81611ff7565b9050919050565b6000602082019050818103600083015261230f8161201a565b9050919050565b6000602082019050818103600083015261232f8161203d565b9050919050565b600060208201905061234b600083018461206f565b92915050565b6000604082019050612366600083018561206f565b612373602083018461206f565b9392505050565b6000612384612395565b90506123908282612608565b919050565b6000604051905090565b600067ffffffffffffffff8211156123ba576123b96126e0565b5b602082029050602081019050919050565b600067ffffffffffffffff8211156123e6576123e56126e0565b5b602082029050602081019050919050565b600067ffffffffffffffff821115612412576124116126e0565b5b61241b82612731565b9050602081019050919050565b600067ffffffffffffffff821115612443576124426126e0565b5b61244c82612731565b9050602081019050919050565b6000819050602082019050919050565b600081519050919050565b600081519050919050565b600081519050919050565b6000602082019050919050565b600082825260208201905092915050565b600082825260208201905092915050565b600082825260208201905092915050565b60006124d58261258a565b91506124e08361258a565b9250827fffffffffffffffffffffffffffffffffffffffffffffffffffffffffffffffff0382111561251557612514612682565b5b828201905092915050565b600061252b8261256a565b9050919050565b60008115159050919050565b60007fffffffff0000000000000000000000000000000000000000000000000000000082169050919050565b600073ffffffffffffffffffffffffffffffffffffffff82169050919050565b6000819050919050565b82818337600083830152505050565b60005b838110156125c15780820151818401526020810190506125a6565b838111156125d0576000848401525b50505050565b600060028204905060018216806125ee57607f821691505b60208210811415612602576126016126b1565b5b50919050565b61261182612731565b810181811067ffffffffffffffff821117156126305761262f6126e0565b5b80604052505050565b60006126448261258a565b91507fffffffffffffffffffffffffffffffffffffffffffffffffffffffffffffffff82141561267757612676612682565b5b600182019050919050565b7f4e487b7100000000000000000000000000000000000000000000000000000000600052601160045260246000fd5b7f4e487b7100000000000000000000000000000000000000000000000000000000600052602260045260246000fd5b7f4e487b7100000000000000000000000000000000000000000000000000000000600052604160045260246000fd5b600060033d111561272e5760046000803e61272b600051612742565b90505b90565b6000601f19601f8301169050919050565b60008160e01c9050919050565b7f455243313135353a207472616e7366657220746f206e6f6e204552433131353560008201527f526563656976657220696d706c656d656e746572000000000000000000000000602082015250565b7f455243313135353a204552433131353552656365697665722072656a6563746560008201527f6420746f6b656e73000000000000000000000000000000000000000000000000602082015250565b7f455243313135353a2062616c616e636520717565727920666f7220746865207a60008201527f65726f2061646472657373000000000000000000000000000000000000000000602082015250565b7f455243313135353a2063616c6c6572206973206e6f74206f776e6572206e6f7260008201527f20617070726f7665640000000000000000000000000000000000000000000000602082015250565b7f455243313135353a207472616e7366657220746f20746865207a65726f20616460008201527f6472657373000000000000000000000000000000000000000000000000000000602082015250565b7f455243313135353a207472616e736665722063616c6c6572206973206e6f742060008201527f6f776e6572206e6f7220617070726f7665640000000000000000000000000000602082015250565b7f455243313135353a20696e73756666696369656e742062616c616e636520666f60008201527f72207472616e7366657200000000000000000000000000000000000000000000602082015250565b7f455243313135353a2073657474696e6720617070726f76616c2073746174757360008201527f20666f722073656c660000000000000000000000000000000000000000000000602082015250565b7f455243313135353a206163636f756e747320616e6420696473206c656e67746860008201527f206d69736d617463680000000000000000000000000000000000000000000000602082015250565b7f455243313135353a2069647320616e6420616d6f756e7473206c656e6774682060008201527f6d69736d61746368000000000000000000000000000000000000000000000000602082015250565b7f455243313135353a206d696e7420746f20746865207a65726f2061646472657360008201527f7300000000000000000000000000000000000000000000000000000000000000602082015250565b600060443d1015612ac457612b47565b612acc612395565b60043d036004823e80513d602482011167ffffffffffffffff82111715612af4575050612b47565b808201805167ffffffffffffffff811115612b125750505050612b47565b80602083010160043d038501811115612b2f575050505050612b47565b612b3e82602001850186612608565b82955050505050505b90565b612b5381612520565b8114612b5e57600080fd5b50565b612b6a81612532565b8114612b7557600080fd5b50565b612b818161253e565b8114612b8c57600080fd5b50565b612b988161258a565b8114612ba357600080fd5b5056fea26469706673582212209dffa03212b9ba35af1a948a64f02c0d094dc567fcf62d6f6e41676cf24db27b64736f6c63430008010033",
  "linkReferences": {},
  "deployedLinkReferences": {}
}