{
  "_format": "hh-sol-artifact-1",
  "contractName": "NFT",
  "sourceName": "contracts/NFT.sol",
  "abi": [
    {
      "inputs": [],
      "stateMutability": "nonpayable",
      "type": "constructor"
    },
    {
      "anonymous": false,
      "inputs": [
        {
          "indexed": true,
          "internalType": "address",
          "name": "account",
          "type": "address"
        },
        {
          "indexed": true,
          "internalType": "address",
          "name": "operator",
          "type": "address"
        },
        {
          "indexed": false,
          "internalType": "bool",
          "name": "approved",
          "type": "bool"
        }
      ],
      "name": "ApprovalForAll",
      "type": "event"
    },
    {
      "anonymous": false,
      "inputs": [
        {
          "indexed": true,
          "internalType": "address",
          "name": "operator",
          "type": "address"
        },
        {
          "indexed": true,
          "internalType": "address",
          "name": "from",
          "type": "address"
        },
        {
          "indexed": true,
          "internalType": "address",
          "name": "to",
          "type": "address"
        },
        {
          "indexed": false,
          "internalType": "uint256[]",
          "name": "ids",
          "type": "uint256[]"
        },
        {
          "indexed": false,
          "internalType": "uint256[]",
          "name": "values",
          "type": "uint256[]"
        }
      ],
      "name": "TransferBatch",
      "type": "event"
    },
    {
      "anonymous": false,
      "inputs": [
        {
          "indexed": true,
          "internalType": "address",
          "name": "operator",
          "type": "address"
        },
        {
          "indexed": true,
          "internalType": "address",
          "name": "from",
          "type": "address"
        },
        {
          "indexed": true,
          "internalType": "address",
          "name": "to",
          "type": "address"
        },
        {
          "indexed": false,
          "internalType": "uint256",
          "name": "id",
          "type": "uint256"
        },
        {
          "indexed": false,
          "internalType": "uint256",
          "name": "value",
          "type": "uint256"
        }
      ],
      "name": "TransferSingle",
      "type": "event"
    },
    {
      "anonymous": false,
      "inputs": [
        {
          "indexed": false,
          "internalType": "string",
          "name": "value",
          "type": "string"
        },
        {
          "indexed": true,
          "internalType": "uint256",
          "name": "id",
          "type": "uint256"
        }
      ],
      "name": "URI",
      "type": "event"
    },
    {
      "inputs": [
        {
          "internalType": "address",
          "name": "account",
          "type": "address"
        },
        {
          "internalType": "uint256",
          "name": "id",
          "type": "uint256"
        }
      ],
      "name": "balanceOf",
      "outputs": [
        {
          "internalType": "uint256",
          "name": "",
          "type": "uint256"
        }
      ],
      "stateMutability": "view",
      "type": "function"
    },
    {
      "inputs": [
        {
          "internalType": "address[]",
          "name": "accounts",
          "type": "address[]"
        },
        {
          "internalType": "uint256[]",
          "name": "ids",
          "type": "uint256[]"
        }
      ],
      "name": "balanceOfBatch",
      "outputs": [
        {
          "internalType": "uint256[]",
          "name": "",
          "type": "uint256[]"
        }
      ],
      "stateMutability": "view",
      "type": "function"
    },
    {
      "inputs": [
        {
          "internalType": "address",
          "name": "account",
          "type": "address"
        },
        {
          "internalType": "address",
          "name": "operator",
          "type": "address"
        }
      ],
      "name": "isApprovedForAll",
      "outputs": [
        {
          "internalType": "bool",
          "name": "",
          "type": "bool"
        }
      ],
      "stateMutability": "view",
      "type": "function"
    },
    {
      "inputs": [
        {
          "internalType": "address",
          "name": "recipient",
          "type": "address"
        }
      ],
      "name": "mintTo",
      "outputs": [
        {
          "internalType": "uint256",
          "name": "",
          "type": "uint256"
        }
      ],
      "stateMutability": "nonpayable",
      "type": "function"
    },
    {
      "inputs": [
        {
          "internalType": "address",
          "name": "from",
          "type": "address"
        },
        {
          "internalType": "address",
          "name": "to",
          "type": "address"
        },
        {
          "internalType": "uint256[]",
          "name": "ids",
          "type": "uint256[]"
        },
        {
          "internalType": "uint256[]",
          "name": "amounts",
          "type": "uint256[]"
        },
        {
          "internalType": "bytes",
          "name": "data",
          "type": "bytes"
        }
      ],
      "name": "safeBatchTransferFrom",
      "outputs": [],
      "stateMutability": "nonpayable",
      "type": "function"
    },
    {
      "inputs": [
        {
          "internalType": "address",
          "name": "from",
          "type": "address"
        },
        {
          "internalType": "address",
          "name": "to",
          "type": "address"
        },
        {
          "internalType": "uint256",
          "name": "id",
          "type": "uint256"
        },
        {
          "internalType": "uint256",
          "name": "amount",
          "type": "uint256"
        },
        {
          "internalType": "bytes",
          "name": "data",
          "type": "bytes"
        }
      ],
      "name": "safeTransferFrom",
      "outputs": [],
      "stateMutability": "nonpayable",
      "type": "function"
    },
    {
      "inputs": [
        {
          "internalType": "address",
          "name": "operator",
          "type": "address"
        },
        {
          "internalType": "bool",
          "name": "approved",
          "type": "bool"
        }
      ],
      "name": "setApprovalForAll",
      "outputs": [],
      "stateMutability": "nonpayable",
      "type": "function"
    },
    {
      "inputs": [
        {
          "internalType": "bytes4",
          "name": "interfaceId",
          "type": "bytes4"
        }
      ],
      "name": "supportsInterface",
      "outputs": [
        {
          "internalType": "bool",
          "name": "",
          "type": "bool"
        }
      ],
      "stateMutability": "view",
      "type": "function"
    },
    {
      "inputs": [
        {
          "internalType": "uint256",
          "name": "",
          "type": "uint256"
        }
      ],
      "name": "uri",
      "outputs": [
        {
          "internalType": "string",
          "name": "",
          "type": "string"
        }
      ],
      "stateMutability": "view",
      "type": "function"
    }
  ],
  "bytecode": "0x60806040523480156200001157600080fd5b506040518060400160405280600381526020017f4e4654000000000000000000000000000000000000000000000000000000000081525062000059816200006060201b60201c565b5062000191565b8060029080519060200190620000789291906200007c565b5050565b8280546200008a906200012c565b90600052602060002090601f016020900481019282620000ae5760008555620000fa565b82601f10620000c957805160ff1916838001178555620000fa565b82800160010185558215620000fa579182015b82811115620000f9578251825591602001919060010190620000dc565b5b5090506200010991906200010d565b5090565b5b80821115620001285760008160009055506001016200010e565b5090565b600060028204905060018216806200014557607f821691505b602082108114156200015c576200015b62000162565b5b50919050565b7f4e487b7100000000000000000000000000000000000000000000000000000000600052602260045260246000fd5b61296780620001a16000396000f3fe608060405234801561001057600080fd5b50600436106100925760003560e01c80634e1273f4116100665780634e1273f414610143578063755edd1714610173578063a22cb465146101a3578063e985e9c5146101bf578063f242432a146101ef57610092565b8062fdd58e1461009757806301ffc9a7146100c75780630e89341c146100f75780632eb2c2d614610127575b600080fd5b6100b160048036038101906100ac9190611a72565b61020b565b6040516100be91906120f2565b60405180910390f35b6100e160048036038101906100dc9190611b1a565b6102d4565b6040516100ee9190611f55565b60405180910390f35b610111600480360381019061010c9190611b6c565b6103b6565b60405161011e9190611f70565b60405180910390f35b610141600480360381019061013c91906118e8565b61044a565b005b61015d60048036038101906101589190611aae565b6104eb565b60405161016a9190611efc565b60405180910390f35b61018d60048036038101906101889190611883565b61069c565b60405161019a91906120f2565b60405180910390f35b6101bd60048036038101906101b89190611a36565b610701565b005b6101d960048036038101906101d491906118ac565b610717565b6040516101e69190611f55565b60405180910390f35b610209600480360381019061020491906119a7565b6107ab565b005b60008073ffffffffffffffffffffffffffffffffffffffff168373ffffffffffffffffffffffffffffffffffffffff16141561027c576040517f08c379a000000000000000000000000000000000000000000000000000000000815260040161027390611fd2565b60405180910390fd5b60008083815260200190815260200160002060008473ffffffffffffffffffffffffffffffffffffffff1673ffffffffffffffffffffffffffffffffffffffff16815260200190815260200160002054905092915050565b60007fd9b67a26000000000000000000000000000000000000000000000000000000007bffffffffffffffffffffffffffffffffffffffffffffffffffffffff1916827bffffffffffffffffffffffffffffffffffffffffffffffffffffffff1916148061039f57507f0e89341c000000000000000000000000000000000000000000000000000000007bffffffffffffffffffffffffffffffffffffffffffffffffffffffff1916827bffffffffffffffffffffffffffffffffffffffffffffffffffffffff1916145b806103af57506103ae8261084c565b5b9050919050565b6060600280546103c590612361565b80601f01602080910402602001604051908101604052809291908181526020018280546103f190612361565b801561043e5780601f106104135761010080835404028352916020019161043e565b820191906000526020600020905b81548152906001019060200180831161042157829003601f168201915b50505050509050919050565b6104526108b6565b73ffffffffffffffffffffffffffffffffffffffff168573ffffffffffffffffffffffffffffffffffffffff1614806104985750610497856104926108b6565b610717565b5b6104d7576040517f08c379a00000000000000000000000000000000000000000000000000000000081526004016104ce90612032565b60405180910390fd5b6104e485858585856108be565b5050505050565b60608151835114610531576040517f08c379a000000000000000000000000000000000000000000000000000000000815260040161052890612092565b60405180910390fd5b6000835167ffffffffffffffff811115610574577f4e487b7100000000000000000000000000000000000000000000000000000000600052604160045260246000fd5b6040519080825280602002602001820160405280156105a25781602001602082028036833780820191505090505b50905060005b84518110156106915761063b8582815181106105ed577f4e487b7100000000000000000000000000000000000000000000000000000000600052603260045260246000fd5b602002602001015185838151811061062e577f4e487b7100000000000000000000000000000000000000000000000000000000600052603260045260246000fd5b602002602001015161020b565b828281518110610674577f4e487b7100000000000000000000000000000000000000000000000000000000600052603260045260246000fd5b6020026020010181815250508061068a906123c4565b90506105a8565b508091505092915050565b60006106a86003610c1e565b60006106b46003610c34565b90506106f8838260016040518060400160405280600181526020017f2000000000000000000000000000000000000000000000000000000000000000815250610c42565b80915050919050565b61071361070c6108b6565b8383610dd8565b5050565b6000600160008473ffffffffffffffffffffffffffffffffffffffff1673ffffffffffffffffffffffffffffffffffffffff16815260200190815260200160002060008373ffffffffffffffffffffffffffffffffffffffff1673ffffffffffffffffffffffffffffffffffffffff16815260200190815260200160002060009054906101000a900460ff16905092915050565b6107b36108b6565b73ffffffffffffffffffffffffffffffffffffffff168573ffffffffffffffffffffffffffffffffffffffff1614806107f957506107f8856107f36108b6565b610717565b5b610838576040517f08c379a000000000000000000000000000000000000000000000000000000000815260040161082f90611ff2565b60405180910390fd5b6108458585858585610f45565b5050505050565b60007f01ffc9a7000000000000000000000000000000000000000000000000000000007bffffffffffffffffffffffffffffffffffffffffffffffffffffffff1916827bffffffffffffffffffffffffffffffffffffffffffffffffffffffff1916149050919050565b600033905090565b8151835114610902576040517f08c379a00000000000000000000000000000000000000000000000000000000081526004016108f9906120b2565b60405180910390fd5b600073ffffffffffffffffffffffffffffffffffffffff168473ffffffffffffffffffffffffffffffffffffffff161415610972576040517f08c379a000000000000000000000000000000000000000000000000000000000815260040161096990612012565b60405180910390fd5b600061097c6108b6565b905061098c8187878787876111c7565b60005b8451811015610b895760008582815181106109d3577f4e487b7100000000000000000000000000000000000000000000000000000000600052603260045260246000fd5b602002602001015190506000858381518110610a18577f4e487b7100000000000000000000000000000000000000000000000000000000600052603260045260246000fd5b60200260200101519050600080600084815260200190815260200160002060008b73ffffffffffffffffffffffffffffffffffffffff1673ffffffffffffffffffffffffffffffffffffffff16815260200190815260200160002054905081811015610ab9576040517f08c379a0000000000000000000000000000000000000000000000000000000008152600401610ab090612052565b60405180910390fd5b81810360008085815260200190815260200160002060008c73ffffffffffffffffffffffffffffffffffffffff1673ffffffffffffffffffffffffffffffffffffffff168152602001908152602001600020819055508160008085815260200190815260200160002060008b73ffffffffffffffffffffffffffffffffffffffff1673ffffffffffffffffffffffffffffffffffffffff1681526020019081526020016000206000828254610b6e9190612255565b9250508190555050505080610b82906123c4565b905061098f565b508473ffffffffffffffffffffffffffffffffffffffff168673ffffffffffffffffffffffffffffffffffffffff168273ffffffffffffffffffffffffffffffffffffffff167f4a39dc06d4c0dbc64b70af90fd698a233a518aa5d07e595d983b8c0526c8f7fb8787604051610c00929190611f1e565b60405180910390a4610c168187878787876111cf565b505050505050565b6001816000016000828254019250508190555050565b600081600001549050919050565b600073ffffffffffffffffffffffffffffffffffffffff168473ffffffffffffffffffffffffffffffffffffffff161415610cb2576040517f08c379a0000000000000000000000000000000000000000000000000000000008152600401610ca9906120d2565b60405180910390fd5b6000610cbc6108b6565b9050610cdd81600087610cce886113b6565b610cd7886113b6565b876111c7565b8260008086815260200190815260200160002060008773ffffffffffffffffffffffffffffffffffffffff1673ffffffffffffffffffffffffffffffffffffffff1681526020019081526020016000206000828254610d3c9190612255565b925050819055508473ffffffffffffffffffffffffffffffffffffffff16600073ffffffffffffffffffffffffffffffffffffffff168273ffffffffffffffffffffffffffffffffffffffff167fc3d58168c5ae7397731d063d5bbf3d657854427343f4c083240f7aacaa2d0f628787604051610dba92919061210d565b60405180910390a4610dd18160008787878761147c565b5050505050565b8173ffffffffffffffffffffffffffffffffffffffff168373ffffffffffffffffffffffffffffffffffffffff161415610e47576040517f08c379a0000000000000000000000000000000000000000000000000000000008152600401610e3e90612072565b60405180910390fd5b80600160008573ffffffffffffffffffffffffffffffffffffffff1673ffffffffffffffffffffffffffffffffffffffff16815260200190815260200160002060008473ffffffffffffffffffffffffffffffffffffffff1673ffffffffffffffffffffffffffffffffffffffff16815260200190815260200160002060006101000a81548160ff0219169083151502179055508173ffffffffffffffffffffffffffffffffffffffff168373ffffffffffffffffffffffffffffffffffffffff167f17307eab39ab6107e8899845ad3d59bd9653f200f220920489ca2b5937696c3183604051610f389190611f55565b60405180910390a3505050565b600073ffffffffffffffffffffffffffffffffffffffff168473ffffffffffffffffffffffffffffffffffffffff161415610fb5576040517f08c379a0000000000000000000000000000000000000000000000000000000008152600401610fac90612012565b60405180910390fd5b6000610fbf6108b6565b9050610fdf818787610fd0886113b6565b610fd9886113b6565b876111c7565b600080600086815260200190815260200160002060008873ffffffffffffffffffffffffffffffffffffffff1673ffffffffffffffffffffffffffffffffffffffff16815260200190815260200160002054905083811015611076576040517f08c379a000000000000000000000000000000000000000000000000000000000815260040161106d90612052565b60405180910390fd5b83810360008087815260200190815260200160002060008973ffffffffffffffffffffffffffffffffffffffff1673ffffffffffffffffffffffffffffffffffffffff168152602001908152602001600020819055508360008087815260200190815260200160002060008873ffffffffffffffffffffffffffffffffffffffff1673ffffffffffffffffffffffffffffffffffffffff168152602001908152602001600020600082825461112b9190612255565b925050819055508573ffffffffffffffffffffffffffffffffffffffff168773ffffffffffffffffffffffffffffffffffffffff168373ffffffffffffffffffffffffffffffffffffffff167fc3d58168c5ae7397731d063d5bbf3d657854427343f4c083240f7aacaa2d0f6288886040516111a892919061210d565b60405180910390a46111be82888888888861147c565b50505050505050565b505050505050565b6111ee8473ffffffffffffffffffffffffffffffffffffffff16611663565b156113ae578373ffffffffffffffffffffffffffffffffffffffff1663bc197c8187878686866040518663ffffffff1660e01b8152600401611234959493929190611e3a565b602060405180830381600087803b15801561124e57600080fd5b505af192505050801561127f57506040513d601f19601f8201168201806040525081019061127c9190611b43565b60015b6113255761128b61249a565b806308c379a014156112e857506112a061283f565b806112ab57506112ea565b806040517f08c379a00000000000000000000000000000000000000000000000000000000081526004016112df9190611f70565b60405180910390fd5b505b6040517f08c379a000000000000000000000000000000000000000000000000000000000815260040161131c90611f92565b60405180910390fd5b63bc197c8160e01b7bffffffffffffffffffffffffffffffffffffffffffffffffffffffff1916817bffffffffffffffffffffffffffffffffffffffffffffffffffffffff1916146113ac576040517f08c379a00000000000000000000000000000000000000000000000000000000081526004016113a390611fb2565b60405180910390fd5b505b505050505050565b60606000600167ffffffffffffffff8111156113fb577f4e487b7100000000000000000000000000000000000000000000000000000000600052604160045260246000fd5b6040519080825280602002602001820160405280156114295781602001602082028036833780820191505090505b5090508281600081518110611467577f4e487b7100000000000000000000000000000000000000000000000000000000600052603260045260246000fd5b60200260200101818152505080915050919050565b61149b8473ffffffffffffffffffffffffffffffffffffffff16611663565b1561165b578373ffffffffffffffffffffffffffffffffffffffff1663f23a6e6187878686866040518663ffffffff1660e01b81526004016114e1959493929190611ea2565b602060405180830381600087803b1580156114fb57600080fd5b505af192505050801561152c57506040513d601f19601f820116820180604052508101906115299190611b43565b60015b6115d25761153861249a565b806308c379a01415611595575061154d61283f565b806115585750611597565b806040517f08c379a000000000000000000000000000000000000000000000000000000000815260040161158c9190611f70565b60405180910390fd5b505b6040517f08c379a00000000000000000000000000000000000000000000000000000000081526004016115c990611f92565b60405180910390fd5b63f23a6e6160e01b7bffffffffffffffffffffffffffffffffffffffffffffffffffffffff1916817bffffffffffffffffffffffffffffffffffffffffffffffffffffffff191614611659576040517f08c379a000000000000000000000000000000000000000000000000000000000815260040161165090611fb2565b60405180910390fd5b505b505050505050565b6000808273ffffffffffffffffffffffffffffffffffffffff163b119050919050565b60006116996116948461215b565b612136565b905080838252602082019050828560208602820111156116b857600080fd5b60005b858110156116e857816116ce888261179c565b8452602084019350602083019250506001810190506116bb565b5050509392505050565b600061170561170084612187565b612136565b9050808382526020820190508285602086028201111561172457600080fd5b60005b85811015611754578161173a888261186e565b845260208401935060208301925050600181019050611727565b5050509392505050565b600061177161176c846121b3565b612136565b90508281526020810184848401111561178957600080fd5b61179484828561231f565b509392505050565b6000813590506117ab816128d5565b92915050565b600082601f8301126117c257600080fd5b81356117d2848260208601611686565b91505092915050565b600082601f8301126117ec57600080fd5b81356117fc8482602086016116f2565b91505092915050565b600081359050611814816128ec565b92915050565b60008135905061182981612903565b92915050565b60008151905061183e81612903565b92915050565b600082601f83011261185557600080fd5b813561186584826020860161175e565b91505092915050565b60008135905061187d8161291a565b92915050565b60006020828403121561189557600080fd5b60006118a38482850161179c565b91505092915050565b600080604083850312156118bf57600080fd5b60006118cd8582860161179c565b92505060206118de8582860161179c565b9150509250929050565b600080600080600060a0868803121561190057600080fd5b600061190e8882890161179c565b955050602061191f8882890161179c565b945050604086013567ffffffffffffffff81111561193c57600080fd5b611948888289016117db565b935050606086013567ffffffffffffffff81111561196557600080fd5b611971888289016117db565b925050608086013567ffffffffffffffff81111561198e57600080fd5b61199a88828901611844565b9150509295509295909350565b600080600080600060a086880312156119bf57600080fd5b60006119cd8882890161179c565b95505060206119de8882890161179c565b94505060406119ef8882890161186e565b9350506060611a008882890161186e565b925050608086013567ffffffffffffffff811115611a1d57600080fd5b611a2988828901611844565b9150509295509295909350565b60008060408385031215611a4957600080fd5b6000611a578582860161179c565b9250506020611a6885828601611805565b9150509250929050565b60008060408385031215611a8557600080fd5b6000611a938582860161179c565b9250506020611aa48582860161186e565b9150509250929050565b60008060408385031215611ac157600080fd5b600083013567ffffffffffffffff811115611adb57600080fd5b611ae7858286016117b1565b925050602083013567ffffffffffffffff811115611b0457600080fd5b611b10858286016117db565b9150509250929050565b600060208284031215611b2c57600080fd5b6000611b3a8482850161181a565b91505092915050565b600060208284031215611b5557600080fd5b6000611b638482850161182f565b91505092915050565b600060208284031215611b7e57600080fd5b6000611b8c8482850161186e565b91505092915050565b6000611ba18383611e1c565b60208301905092915050565b611bb6816122ab565b82525050565b6000611bc7826121f4565b611bd18185612222565b9350611bdc836121e4565b8060005b83811015611c0d578151611bf48882611b95565b9750611bff83612215565b925050600181019050611be0565b5085935050505092915050565b611c23816122bd565b82525050565b6000611c34826121ff565b611c3e8185612233565b9350611c4e81856020860161232e565b611c57816124bc565b840191505092915050565b6000611c6d8261220a565b611c778185612244565b9350611c8781856020860161232e565b611c90816124bc565b840191505092915050565b6000611ca8603483612244565b9150611cb3826124da565b604082019050919050565b6000611ccb602883612244565b9150611cd682612529565b604082019050919050565b6000611cee602b83612244565b9150611cf982612578565b604082019050919050565b6000611d11602983612244565b9150611d1c826125c7565b604082019050919050565b6000611d34602583612244565b9150611d3f82612616565b604082019050919050565b6000611d57603283612244565b9150611d6282612665565b604082019050919050565b6000611d7a602a83612244565b9150611d85826126b4565b604082019050919050565b6000611d9d602983612244565b9150611da882612703565b604082019050919050565b6000611dc0602983612244565b9150611dcb82612752565b604082019050919050565b6000611de3602883612244565b9150611dee826127a1565b604082019050919050565b6000611e06602183612244565b9150611e11826127f0565b604082019050919050565b611e2581612315565b82525050565b611e3481612315565b82525050565b600060a082019050611e4f6000830188611bad565b611e5c6020830187611bad565b8181036040830152611e6e8186611bbc565b90508181036060830152611e828185611bbc565b90508181036080830152611e968184611c29565b90509695505050505050565b600060a082019050611eb76000830188611bad565b611ec46020830187611bad565b611ed16040830186611e2b565b611ede6060830185611e2b565b8181036080830152611ef08184611c29565b90509695505050505050565b60006020820190508181036000830152611f168184611bbc565b905092915050565b60006040820190508181036000830152611f388185611bbc565b90508181036020830152611f4c8184611bbc565b90509392505050565b6000602082019050611f6a6000830184611c1a565b92915050565b60006020820190508181036000830152611f8a8184611c62565b905092915050565b60006020820190508181036000830152611fab81611c9b565b9050919050565b60006020820190508181036000830152611fcb81611cbe565b9050919050565b60006020820190508181036000830152611feb81611ce1565b9050919050565b6000602082019050818103600083015261200b81611d04565b9050919050565b6000602082019050818103600083015261202b81611d27565b9050919050565b6000602082019050818103600083015261204b81611d4a565b9050919050565b6000602082019050818103600083015261206b81611d6d565b9050919050565b6000602082019050818103600083015261208b81611d90565b9050919050565b600060208201905081810360008301526120ab81611db3565b9050919050565b600060208201905081810360008301526120cb81611dd6565b9050919050565b600060208201905081810360008301526120eb81611df9565b9050919050565b60006020820190506121076000830184611e2b565b92915050565b60006040820190506121226000830185611e2b565b61212f6020830184611e2b565b9392505050565b6000612140612151565b905061214c8282612393565b919050565b6000604051905090565b600067ffffffffffffffff8211156121765761217561246b565b5b602082029050602081019050919050565b600067ffffffffffffffff8211156121a2576121a161246b565b5b602082029050602081019050919050565b600067ffffffffffffffff8211156121ce576121cd61246b565b5b6121d7826124bc565b9050602081019050919050565b6000819050602082019050919050565b600081519050919050565b600081519050919050565b600081519050919050565b6000602082019050919050565b600082825260208201905092915050565b600082825260208201905092915050565b600082825260208201905092915050565b600061226082612315565b915061226b83612315565b9250827fffffffffffffffffffffffffffffffffffffffffffffffffffffffffffffffff038211156122a05761229f61240d565b5b828201905092915050565b60006122b6826122f5565b9050919050565b60008115159050919050565b60007fffffffff0000000000000000000000000000000000000000000000000000000082169050919050565b600073ffffffffffffffffffffffffffffffffffffffff82169050919050565b6000819050919050565b82818337600083830152505050565b60005b8381101561234c578082015181840152602081019050612331565b8381111561235b576000848401525b50505050565b6000600282049050600182168061237957607f821691505b6020821081141561238d5761238c61243c565b5b50919050565b61239c826124bc565b810181811067ffffffffffffffff821117156123bb576123ba61246b565b5b80604052505050565b60006123cf82612315565b91507fffffffffffffffffffffffffffffffffffffffffffffffffffffffffffffffff8214156124025761240161240d565b5b600182019050919050565b7f4e487b7100000000000000000000000000000000000000000000000000000000600052601160045260246000fd5b7f4e487b7100000000000000000000000000000000000000000000000000000000600052602260045260246000fd5b7f4e487b7100000000000000000000000000000000000000000000000000000000600052604160045260246000fd5b600060033d11156124b95760046000803e6124b66000516124cd565b90505b90565b6000601f19601f8301169050919050565b60008160e01c9050919050565b7f455243313135353a207472616e7366657220746f206e6f6e204552433131353560008201527f526563656976657220696d706c656d656e746572000000000000000000000000602082015250565b7f455243313135353a204552433131353552656365697665722072656a6563746560008201527f6420746f6b656e73000000000000000000000000000000000000000000000000602082015250565b7f455243313135353a2062616c616e636520717565727920666f7220746865207a60008201527f65726f2061646472657373000000000000000000000000000000000000000000602082015250565b7f455243313135353a2063616c6c6572206973206e6f74206f776e6572206e6f7260008201527f20617070726f7665640000000000000000000000000000000000000000000000602082015250565b7f455243313135353a207472616e7366657220746f20746865207a65726f20616460008201527f6472657373000000000000000000000000000000000000000000000000000000602082015250565b7f455243313135353a207472616e736665722063616c6c6572206973206e6f742060008201527f6f776e6572206e6f7220617070726f7665640000000000000000000000000000602082015250565b7f455243313135353a20696e73756666696369656e742062616c616e636520666f60008201527f72207472616e7366657200000000000000000000000000000000000000000000602082015250565b7f455243313135353a2073657474696e6720617070726f76616c2073746174757360008201527f20666f722073656c660000000000000000000000000000000000000000000000602082015250565b7f455243313135353a206163636f756e747320616e6420696473206c656e67746860008201527f206d69736d617463680000000000000000000000000000000000000000000000602082015250565b7f455243313135353a2069647320616e6420616d6f756e7473206c656e6774682060008201527f6d69736d61746368000000000000000000000000000000000000000000000000602082015250565b7f455243313135353a206d696e7420746f20746865207a65726f2061646472657360008201527f7300000000000000000000000000000000000000000000000000000000000000602082015250565b600060443d101561284f576128d2565b612857612151565b60043d036004823e80513d602482011167ffffffffffffffff8211171561287f5750506128d2565b808201805167ffffffffffffffff81111561289d57505050506128d2565b80602083010160043d0385018111156128ba5750505050506128d2565b6128c982602001850186612393565b82955050505050505b90565b6128de816122ab565b81146128e957600080fd5b50565b6128f5816122bd565b811461290057600080fd5b50565b61290c816122c9565b811461291757600080fd5b50565b61292381612315565b811461292e57600080fd5b5056fea2646970667358221220331cf3634edca64d2f94705e3dc020af40c04ab54cb85819d712d32294b5a8f364736f6c63430008010033",
  "linkReferences": {},
  "deployedLinkReferences": {}
}