{
  "_format": "hh-sol-artifact-1",
  "contractName": "NFT",
  "sourceName": "contracts/NFT.sol",
  "abi": [
    {
      "inputs": [],
      "stateMutability": "nonpayable",
      "type": "constructor"
    },
    {
      "anonymous": false,
      "inputs": [
        {
          "indexed": true,
          "internalType": "address",
          "name": "account",
          "type": "address"
        },
        {
          "indexed": true,
          "internalType": "address",
          "name": "operator",
          "type": "address"
        },
        {
          "indexed": false,
          "internalType": "bool",
          "name": "approved",
          "type": "bool"
        }
      ],
      "name": "ApprovalForAll",
      "type": "event"
    },
    {
      "anonymous": false,
      "inputs": [
        {
          "indexed": true,
          "internalType": "address",
          "name": "previousOwner",
          "type": "address"
        },
        {
          "indexed": true,
          "internalType": "address",
          "name": "newOwner",
          "type": "address"
        }
      ],
      "name": "OwnershipTransferred",
      "type": "event"
    },
    {
      "anonymous": false,
      "inputs": [
        {
          "indexed": true,
          "internalType": "bytes32",
          "name": "role",
          "type": "bytes32"
        },
        {
          "indexed": true,
          "internalType": "bytes32",
          "name": "previousAdminRole",
          "type": "bytes32"
        },
        {
          "indexed": true,
          "internalType": "bytes32",
          "name": "newAdminRole",
          "type": "bytes32"
        }
      ],
      "name": "RoleAdminChanged",
      "type": "event"
    },
    {
      "anonymous": false,
      "inputs": [
        {
          "indexed": true,
          "internalType": "bytes32",
          "name": "role",
          "type": "bytes32"
        },
        {
          "indexed": true,
          "internalType": "address",
          "name": "account",
          "type": "address"
        },
        {
          "indexed": true,
          "internalType": "address",
          "name": "sender",
          "type": "address"
        }
      ],
      "name": "RoleGranted",
      "type": "event"
    },
    {
      "anonymous": false,
      "inputs": [
        {
          "indexed": true,
          "internalType": "bytes32",
          "name": "role",
          "type": "bytes32"
        },
        {
          "indexed": true,
          "internalType": "address",
          "name": "account",
          "type": "address"
        },
        {
          "indexed": true,
          "internalType": "address",
          "name": "sender",
          "type": "address"
        }
      ],
      "name": "RoleRevoked",
      "type": "event"
    },
    {
      "anonymous": false,
      "inputs": [
        {
          "indexed": true,
          "internalType": "address",
          "name": "operator",
          "type": "address"
        },
        {
          "indexed": true,
          "internalType": "address",
          "name": "from",
          "type": "address"
        },
        {
          "indexed": true,
          "internalType": "address",
          "name": "to",
          "type": "address"
        },
        {
          "indexed": false,
          "internalType": "uint256[]",
          "name": "ids",
          "type": "uint256[]"
        },
        {
          "indexed": false,
          "internalType": "uint256[]",
          "name": "values",
          "type": "uint256[]"
        }
      ],
      "name": "TransferBatch",
      "type": "event"
    },
    {
      "anonymous": false,
      "inputs": [
        {
          "indexed": true,
          "internalType": "address",
          "name": "operator",
          "type": "address"
        },
        {
          "indexed": true,
          "internalType": "address",
          "name": "from",
          "type": "address"
        },
        {
          "indexed": true,
          "internalType": "address",
          "name": "to",
          "type": "address"
        },
        {
          "indexed": false,
          "internalType": "uint256",
          "name": "id",
          "type": "uint256"
        },
        {
          "indexed": false,
          "internalType": "uint256",
          "name": "value",
          "type": "uint256"
        }
      ],
      "name": "TransferSingle",
      "type": "event"
    },
    {
      "anonymous": false,
      "inputs": [
        {
          "indexed": false,
          "internalType": "string",
          "name": "value",
          "type": "string"
        },
        {
          "indexed": true,
          "internalType": "uint256",
          "name": "id",
          "type": "uint256"
        }
      ],
      "name": "URI",
      "type": "event"
    },
    {
      "inputs": [],
      "name": "DEFAULT_ADMIN_ROLE",
      "outputs": [
        {
          "internalType": "bytes32",
          "name": "",
          "type": "bytes32"
        }
      ],
      "stateMutability": "view",
      "type": "function"
    },
    {
      "inputs": [
        {
          "internalType": "address",
          "name": "account",
          "type": "address"
        },
        {
          "internalType": "uint256",
          "name": "id",
          "type": "uint256"
        }
      ],
      "name": "balanceOf",
      "outputs": [
        {
          "internalType": "uint256",
          "name": "",
          "type": "uint256"
        }
      ],
      "stateMutability": "view",
      "type": "function"
    },
    {
      "inputs": [
        {
          "internalType": "address[]",
          "name": "accounts",
          "type": "address[]"
        },
        {
          "internalType": "uint256[]",
          "name": "ids",
          "type": "uint256[]"
        }
      ],
      "name": "balanceOfBatch",
      "outputs": [
        {
          "internalType": "uint256[]",
          "name": "",
          "type": "uint256[]"
        }
      ],
      "stateMutability": "view",
      "type": "function"
    },
    {
      "inputs": [],
      "name": "baseTokenURI",
      "outputs": [
        {
          "internalType": "string",
          "name": "",
          "type": "string"
        }
      ],
      "stateMutability": "view",
      "type": "function"
    },
    {
      "inputs": [
        {
          "internalType": "bytes32",
          "name": "role",
          "type": "bytes32"
        }
      ],
      "name": "getRoleAdmin",
      "outputs": [
        {
          "internalType": "bytes32",
          "name": "",
          "type": "bytes32"
        }
      ],
      "stateMutability": "view",
      "type": "function"
    },
    {
      "inputs": [
        {
          "internalType": "bytes32",
          "name": "role",
          "type": "bytes32"
        },
        {
          "internalType": "address",
          "name": "account",
          "type": "address"
        }
      ],
      "name": "grantRole",
      "outputs": [],
      "stateMutability": "nonpayable",
      "type": "function"
    },
    {
      "inputs": [
        {
          "internalType": "bytes32",
          "name": "role",
          "type": "bytes32"
        },
        {
          "internalType": "address",
          "name": "account",
          "type": "address"
        }
      ],
      "name": "hasRole",
      "outputs": [
        {
          "internalType": "bool",
          "name": "",
          "type": "bool"
        }
      ],
      "stateMutability": "view",
      "type": "function"
    },
    {
      "inputs": [
        {
          "internalType": "address",
          "name": "account",
          "type": "address"
        },
        {
          "internalType": "address",
          "name": "operator",
          "type": "address"
        }
      ],
      "name": "isApprovedForAll",
      "outputs": [
        {
          "internalType": "bool",
          "name": "",
          "type": "bool"
        }
      ],
      "stateMutability": "view",
      "type": "function"
    },
    {
      "inputs": [
        {
          "internalType": "address",
          "name": "recipient",
          "type": "address"
        }
      ],
      "name": "mintTo",
      "outputs": [
        {
          "internalType": "uint256",
          "name": "",
          "type": "uint256"
        }
      ],
      "stateMutability": "nonpayable",
      "type": "function"
    },
    {
      "inputs": [],
      "name": "name",
      "outputs": [
        {
          "internalType": "string",
          "name": "",
          "type": "string"
        }
      ],
      "stateMutability": "view",
      "type": "function"
    },
    {
      "inputs": [],
      "name": "owner",
      "outputs": [
        {
          "internalType": "address",
          "name": "",
          "type": "address"
        }
      ],
      "stateMutability": "view",
      "type": "function"
    },
    {
      "inputs": [],
      "name": "renounceOwnership",
      "outputs": [],
      "stateMutability": "nonpayable",
      "type": "function"
    },
    {
      "inputs": [
        {
          "internalType": "bytes32",
          "name": "role",
          "type": "bytes32"
        },
        {
          "internalType": "address",
          "name": "account",
          "type": "address"
        }
      ],
      "name": "renounceRole",
      "outputs": [],
      "stateMutability": "nonpayable",
      "type": "function"
    },
    {
      "inputs": [
        {
          "internalType": "bytes32",
          "name": "role",
          "type": "bytes32"
        },
        {
          "internalType": "address",
          "name": "account",
          "type": "address"
        }
      ],
      "name": "revokeRole",
      "outputs": [],
      "stateMutability": "nonpayable",
      "type": "function"
    },
    {
      "inputs": [
        {
          "internalType": "address",
          "name": "from",
          "type": "address"
        },
        {
          "internalType": "address",
          "name": "to",
          "type": "address"
        },
        {
          "internalType": "uint256[]",
          "name": "ids",
          "type": "uint256[]"
        },
        {
          "internalType": "uint256[]",
          "name": "amounts",
          "type": "uint256[]"
        },
        {
          "internalType": "bytes",
          "name": "data",
          "type": "bytes"
        }
      ],
      "name": "safeBatchTransferFrom",
      "outputs": [],
      "stateMutability": "nonpayable",
      "type": "function"
    },
    {
      "inputs": [
        {
          "internalType": "address",
          "name": "from",
          "type": "address"
        },
        {
          "internalType": "address",
          "name": "to",
          "type": "address"
        },
        {
          "internalType": "uint256",
          "name": "id",
          "type": "uint256"
        },
        {
          "internalType": "uint256",
          "name": "amount",
          "type": "uint256"
        },
        {
          "internalType": "bytes",
          "name": "data",
          "type": "bytes"
        }
      ],
      "name": "safeTransferFrom",
      "outputs": [],
      "stateMutability": "nonpayable",
      "type": "function"
    },
    {
      "inputs": [
        {
          "internalType": "address",
          "name": "operator",
          "type": "address"
        },
        {
          "internalType": "bool",
          "name": "approved",
          "type": "bool"
        }
      ],
      "name": "setApprovalForAll",
      "outputs": [],
      "stateMutability": "nonpayable",
      "type": "function"
    },
    {
      "inputs": [
        {
          "internalType": "bytes4",
          "name": "interfaceId",
          "type": "bytes4"
        }
      ],
      "name": "supportsInterface",
      "outputs": [
        {
          "internalType": "bool",
          "name": "",
          "type": "bool"
        }
      ],
      "stateMutability": "view",
      "type": "function"
    },
    {
      "inputs": [],
      "name": "symbol",
      "outputs": [
        {
          "internalType": "string",
          "name": "",
          "type": "string"
        }
      ],
      "stateMutability": "view",
      "type": "function"
    },
    {
      "inputs": [
        {
          "internalType": "uint256",
          "name": "_id",
          "type": "uint256"
        }
      ],
      "name": "tokenUri",
      "outputs": [
        {
          "internalType": "string",
          "name": "",
          "type": "string"
        }
      ],
      "stateMutability": "view",
      "type": "function"
    },
    {
      "inputs": [
        {
          "internalType": "address",
          "name": "newOwner",
          "type": "address"
        }
      ],
      "name": "transferOwnership",
      "outputs": [],
      "stateMutability": "nonpayable",
      "type": "function"
    },
    {
      "inputs": [
        {
          "internalType": "uint256",
          "name": "",
          "type": "uint256"
        }
      ],
      "name": "uri",
      "outputs": [
        {
          "internalType": "string",
          "name": "",
          "type": "string"
        }
      ],
      "stateMutability": "view",
      "type": "function"
    }
  ],
  "bytecode": "0x60806040523480156200001157600080fd5b506040518060a00160405280606681526020016200470a606691396200003d816200010060201b60201c565b506200005e620000526200011c60201b60201c565b6200012460201b60201c565b6040518060400160405280600c81526020017f4e4654205475746f7269616c000000000000000000000000000000000000000081525060069080519060200190620000ab929190620001ea565b506040518060400160405280600381526020017f4e4654000000000000000000000000000000000000000000000000000000000081525060079080519060200190620000f9929190620001ea565b50620002ff565b806002908051906020019062000118929190620001ea565b5050565b600033905090565b6000600360009054906101000a900473ffffffffffffffffffffffffffffffffffffffff16905081600360006101000a81548173ffffffffffffffffffffffffffffffffffffffff021916908373ffffffffffffffffffffffffffffffffffffffff1602179055508173ffffffffffffffffffffffffffffffffffffffff168173ffffffffffffffffffffffffffffffffffffffff167f8be0079c531659141344cd1fd0a4f28419497f9722a3daafe3b4186f6b6457e060405160405180910390a35050565b828054620001f8906200029a565b90600052602060002090601f0160209004810192826200021c576000855562000268565b82601f106200023757805160ff191683800117855562000268565b8280016001018555821562000268579182015b82811115620002675782518255916020019190600101906200024a565b5b5090506200027791906200027b565b5090565b5b80821115620002965760008160009055506001016200027c565b5090565b60006002820490506001821680620002b357607f821691505b60208210811415620002ca57620002c9620002d0565b5b50919050565b7f4e487b7100000000000000000000000000000000000000000000000000000000600052602260045260246000fd5b6143fb806200030f6000396000f3fe608060405234801561001057600080fd5b50600436106101415760003560e01c8063755edd17116100b8578063a22cb4651161007c578063a22cb4651461039c578063d547741f146103b8578063d547cfb7146103d4578063e985e9c5146103f2578063f242432a14610422578063f2fde38b1461043e57610141565b8063755edd17146102e25780638da5cb5b1461031257806391d148541461033057806395d89b4114610360578063a217fddf1461037e57610141565b8063248a9ca31161010a578063248a9ca3146102245780632eb2c2d6146102545780632f2ff15d1461027057806336568abe1461028c5780634e1273f4146102a8578063715018a6146102d857610141565b8062fdd58e1461014657806301ffc9a71461017657806306fdde03146101a65780630e89341c146101c45780631675f455146101f4575b600080fd5b610160600480360381019061015b9190612fe8565b61045a565b60405161016d91906138cf565b60405180910390f35b610190600480360381019061018b91906130f5565b610523565b60405161019d9190613697565b60405180910390f35b6101ae610535565b6040516101bb91906136cd565b60405180910390f35b6101de60048036038101906101d99190613147565b6105c3565b6040516101eb91906136cd565b60405180910390f35b61020e60048036038101906102099190613147565b610657565b60405161021b91906136cd565b60405180910390f35b61023e60048036038101906102399190613090565b6106fc565b60405161024b91906136b2565b60405180910390f35b61026e60048036038101906102699190612e5e565b61071c565b005b61028a600480360381019061028591906130b9565b6107bd565b005b6102a660048036038101906102a191906130b9565b6107e6565b005b6102c260048036038101906102bd9190613024565b610869565b6040516102cf919061363e565b60405180910390f35b6102e0610a1a565b005b6102fc60048036038101906102f79190612df9565b610aa2565b60405161030991906138cf565b60405180910390f35b61031a610b07565b6040516103279190613561565b60405180910390f35b61034a600480360381019061034591906130b9565b610b31565b6040516103579190613697565b60405180910390f35b610368610b9c565b60405161037591906136cd565b60405180910390f35b610386610c2a565b60405161039391906136b2565b60405180910390f35b6103b660048036038101906103b19190612fac565b610c31565b005b6103d260048036038101906103cd91906130b9565b610c47565b005b6103dc610c70565b6040516103e991906136cd565b60405180910390f35b61040c60048036038101906104079190612e22565b610cfe565b6040516104199190613697565b60405180910390f35b61043c60048036038101906104379190612f1d565b610d92565b005b61045860048036038101906104539190612df9565b610e33565b005b60008073ffffffffffffffffffffffffffffffffffffffff168373ffffffffffffffffffffffffffffffffffffffff1614156104cb576040517f08c379a00000000000000000000000000000000000000000000000000000000081526004016104c29061374f565b60405180910390fd5b60008083815260200190815260200160002060008473ffffffffffffffffffffffffffffffffffffffff1673ffffffffffffffffffffffffffffffffffffffff16815260200190815260200160002054905092915050565b600061052e82610f2b565b9050919050565b6006805461054290613c3c565b80601f016020809104026020016040519081016040528092919081815260200182805461056e90613c3c565b80156105bb5780601f10610590576101008083540402835291602001916105bb565b820191906000526020600020905b81548152906001019060200180831161059e57829003601f168201915b505050505081565b6060600280546105d290613c3c565b80601f01602080910402602001604051908101604052809291908181526020018280546105fe90613c3c565b801561064b5780601f106106205761010080835404028352916020019161064b565b820191906000526020600020905b81548152906001019060200180831161062e57829003601f168201915b50505050509050919050565b60606106f56008805461066990613c3c565b80601f016020809104026020016040519081016040528092919081815260200182805461069590613c3c565b80156106e25780601f106106b7576101008083540402835291602001916106e2565b820191906000526020600020905b8154815290600101906020018083116106c557829003601f168201915b50505050506106f084610fa5565b611152565b9050919050565b600060046000838152602001908152602001600020600101549050919050565b610724611196565b73ffffffffffffffffffffffffffffffffffffffff168573ffffffffffffffffffffffffffffffffffffffff16148061076a575061076985610764611196565b610cfe565b5b6107a9576040517f08c379a00000000000000000000000000000000000000000000000000000000081526004016107a0906137cf565b60405180910390fd5b6107b6858585858561119e565b5050505050565b6107c6826106fc565b6107d7816107d2611196565b6114fe565b6107e1838361159b565b505050565b6107ee611196565b73ffffffffffffffffffffffffffffffffffffffff168173ffffffffffffffffffffffffffffffffffffffff161461085b576040517f08c379a0000000000000000000000000000000000000000000000000000000008152600401610852906138af565b60405180910390fd5b610865828261167c565b5050565b606081518351146108af576040517f08c379a00000000000000000000000000000000000000000000000000000000081526004016108a69061384f565b60405180910390fd5b6000835167ffffffffffffffff8111156108f2577f4e487b7100000000000000000000000000000000000000000000000000000000600052604160045260246000fd5b6040519080825280602002602001820160405280156109205781602001602082028036833780820191505090505b50905060005b8451811015610a0f576109b985828151811061096b577f4e487b7100000000000000000000000000000000000000000000000000000000600052603260045260246000fd5b60200260200101518583815181106109ac577f4e487b7100000000000000000000000000000000000000000000000000000000600052603260045260246000fd5b602002602001015161045a565b8282815181106109f2577f4e487b7100000000000000000000000000000000000000000000000000000000600052603260045260246000fd5b60200260200101818152505080610a0890613c9f565b9050610926565b508091505092915050565b610a22611196565b73ffffffffffffffffffffffffffffffffffffffff16610a40610b07565b73ffffffffffffffffffffffffffffffffffffffff1614610a96576040517f08c379a0000000000000000000000000000000000000000000000000000000008152600401610a8d9061380f565b60405180910390fd5b610aa0600061175e565b565b6000610aae6005611824565b6000610aba600561183a565b9050610afe8382600a6040518060400160405280600181526020017f2000000000000000000000000000000000000000000000000000000000000000815250611848565b80915050919050565b6000600360009054906101000a900473ffffffffffffffffffffffffffffffffffffffff16905090565b60006004600084815260200190815260200160002060000160008373ffffffffffffffffffffffffffffffffffffffff1673ffffffffffffffffffffffffffffffffffffffff16815260200190815260200160002060009054906101000a900460ff16905092915050565b60078054610ba990613c3c565b80601f0160208091040260200160405190810160405280929190818152602001828054610bd590613c3c565b8015610c225780601f10610bf757610100808354040283529160200191610c22565b820191906000526020600020905b815481529060010190602001808311610c0557829003601f168201915b505050505081565b6000801b81565b610c43610c3c611196565b83836119de565b5050565b610c50826106fc565b610c6181610c5c611196565b6114fe565b610c6b838361167c565b505050565b60088054610c7d90613c3c565b80601f0160208091040260200160405190810160405280929190818152602001828054610ca990613c3c565b8015610cf65780601f10610ccb57610100808354040283529160200191610cf6565b820191906000526020600020905b815481529060010190602001808311610cd957829003601f168201915b505050505081565b6000600160008473ffffffffffffffffffffffffffffffffffffffff1673ffffffffffffffffffffffffffffffffffffffff16815260200190815260200160002060008373ffffffffffffffffffffffffffffffffffffffff1673ffffffffffffffffffffffffffffffffffffffff16815260200190815260200160002060009054906101000a900460ff16905092915050565b610d9a611196565b73ffffffffffffffffffffffffffffffffffffffff168573ffffffffffffffffffffffffffffffffffffffff161480610de05750610ddf85610dda611196565b610cfe565b5b610e1f576040517f08c379a0000000000000000000000000000000000000000000000000000000008152600401610e169061378f565b60405180910390fd5b610e2c8585858585611b4b565b5050505050565b610e3b611196565b73ffffffffffffffffffffffffffffffffffffffff16610e59610b07565b73ffffffffffffffffffffffffffffffffffffffff1614610eaf576040517f08c379a0000000000000000000000000000000000000000000000000000000008152600401610ea69061380f565b60405180910390fd5b600073ffffffffffffffffffffffffffffffffffffffff168173ffffffffffffffffffffffffffffffffffffffff161415610f1f576040517f08c379a0000000000000000000000000000000000000000000000000000000008152600401610f169061376f565b60405180910390fd5b610f288161175e565b50565b60007f7965db0b000000000000000000000000000000000000000000000000000000007bffffffffffffffffffffffffffffffffffffffffffffffffffffffff1916827bffffffffffffffffffffffffffffffffffffffffffffffffffffffff19161480610f9e5750610f9d82611dcd565b5b9050919050565b60606000821415610fed576040518060400160405280600181526020017f3000000000000000000000000000000000000000000000000000000000000000815250905061114d565b600082905060005b6000821461101f57808061100890613c9f565b915050600a826110189190613a93565b9150610ff5565b60008167ffffffffffffffff811115611061577f4e487b7100000000000000000000000000000000000000000000000000000000600052604160045260246000fd5b6040519080825280601f01601f1916602001820160405280156110935781602001600182028036833780820191505090505b5090505b60008514611146576001826110ac9190613b1e565b9150600a856110bb9190613ce8565b60306110c79190613a3d565b60f81b818381518110611103577f4e487b7100000000000000000000000000000000000000000000000000000000600052603260045260246000fd5b60200101907effffffffffffffffffffffffffffffffffffffffffffffffffffffffffffff1916908160001a905350600a8561113f9190613a93565b9450611097565b8093505050505b919050565b606061118e8383604051806020016040528060008152506040518060200160405280600081525060405180602001604052806000815250611eaf565b905092915050565b600033905090565b81518351146111e2576040517f08c379a00000000000000000000000000000000000000000000000000000000081526004016111d99061386f565b60405180910390fd5b600073ffffffffffffffffffffffffffffffffffffffff168473ffffffffffffffffffffffffffffffffffffffff161415611252576040517f08c379a0000000000000000000000000000000000000000000000000000000008152600401611249906137af565b60405180910390fd5b600061125c611196565b905061126c8187878787876123c4565b60005b84518110156114695760008582815181106112b3577f4e487b7100000000000000000000000000000000000000000000000000000000600052603260045260246000fd5b6020026020010151905060008583815181106112f8577f4e487b7100000000000000000000000000000000000000000000000000000000600052603260045260246000fd5b60200260200101519050600080600084815260200190815260200160002060008b73ffffffffffffffffffffffffffffffffffffffff1673ffffffffffffffffffffffffffffffffffffffff16815260200190815260200160002054905081811015611399576040517f08c379a0000000000000000000000000000000000000000000000000000000008152600401611390906137ef565b60405180910390fd5b81810360008085815260200190815260200160002060008c73ffffffffffffffffffffffffffffffffffffffff1673ffffffffffffffffffffffffffffffffffffffff168152602001908152602001600020819055508160008085815260200190815260200160002060008b73ffffffffffffffffffffffffffffffffffffffff1673ffffffffffffffffffffffffffffffffffffffff168152602001908152602001600020600082825461144e9190613a3d565b925050819055505050508061146290613c9f565b905061126f565b508473ffffffffffffffffffffffffffffffffffffffff168673ffffffffffffffffffffffffffffffffffffffff168273ffffffffffffffffffffffffffffffffffffffff167f4a39dc06d4c0dbc64b70af90fd698a233a518aa5d07e595d983b8c0526c8f7fb87876040516114e0929190613660565b60405180910390a46114f68187878787876123cc565b505050505050565b6115088282610b31565b6115975761152d8173ffffffffffffffffffffffffffffffffffffffff1660146125b3565b61153b8360001c60206125b3565b60405160200161154c929190613527565b6040516020818303038152906040526040517f08c379a000000000000000000000000000000000000000000000000000000000815260040161158e91906136cd565b60405180910390fd5b5050565b6115a58282610b31565b6116785760016004600084815260200190815260200160002060000160008373ffffffffffffffffffffffffffffffffffffffff1673ffffffffffffffffffffffffffffffffffffffff16815260200190815260200160002060006101000a81548160ff02191690831515021790555061161d611196565b73ffffffffffffffffffffffffffffffffffffffff168173ffffffffffffffffffffffffffffffffffffffff16837f2f8788117e7eff1d82e926ec794901d17c78024a50270940304540a733656f0d60405160405180910390a45b5050565b6116868282610b31565b1561175a5760006004600084815260200190815260200160002060000160008373ffffffffffffffffffffffffffffffffffffffff1673ffffffffffffffffffffffffffffffffffffffff16815260200190815260200160002060006101000a81548160ff0219169083151502179055506116ff611196565b73ffffffffffffffffffffffffffffffffffffffff168173ffffffffffffffffffffffffffffffffffffffff16837ff6391f5c32d9c69d2a47ea670b442974b53935d1edc7fd64eb21e047a839171b60405160405180910390a45b5050565b6000600360009054906101000a900473ffffffffffffffffffffffffffffffffffffffff16905081600360006101000a81548173ffffffffffffffffffffffffffffffffffffffff021916908373ffffffffffffffffffffffffffffffffffffffff1602179055508173ffffffffffffffffffffffffffffffffffffffff168173ffffffffffffffffffffffffffffffffffffffff167f8be0079c531659141344cd1fd0a4f28419497f9722a3daafe3b4186f6b6457e060405160405180910390a35050565b6001816000016000828254019250508190555050565b600081600001549050919050565b600073ffffffffffffffffffffffffffffffffffffffff168473ffffffffffffffffffffffffffffffffffffffff1614156118b8576040517f08c379a00000000000000000000000000000000000000000000000000000000081526004016118af9061388f565b60405180910390fd5b60006118c2611196565b90506118e3816000876118d4886128ad565b6118dd886128ad565b876123c4565b8260008086815260200190815260200160002060008773ffffffffffffffffffffffffffffffffffffffff1673ffffffffffffffffffffffffffffffffffffffff16815260200190815260200160002060008282546119429190613a3d565b925050819055508473ffffffffffffffffffffffffffffffffffffffff16600073ffffffffffffffffffffffffffffffffffffffff168273ffffffffffffffffffffffffffffffffffffffff167fc3d58168c5ae7397731d063d5bbf3d657854427343f4c083240f7aacaa2d0f6287876040516119c09291906138ea565b60405180910390a46119d781600087878787612973565b5050505050565b8173ffffffffffffffffffffffffffffffffffffffff168373ffffffffffffffffffffffffffffffffffffffff161415611a4d576040517f08c379a0000000000000000000000000000000000000000000000000000000008152600401611a449061382f565b60405180910390fd5b80600160008573ffffffffffffffffffffffffffffffffffffffff1673ffffffffffffffffffffffffffffffffffffffff16815260200190815260200160002060008473ffffffffffffffffffffffffffffffffffffffff1673ffffffffffffffffffffffffffffffffffffffff16815260200190815260200160002060006101000a81548160ff0219169083151502179055508173ffffffffffffffffffffffffffffffffffffffff168373ffffffffffffffffffffffffffffffffffffffff167f17307eab39ab6107e8899845ad3d59bd9653f200f220920489ca2b5937696c3183604051611b3e9190613697565b60405180910390a3505050565b600073ffffffffffffffffffffffffffffffffffffffff168473ffffffffffffffffffffffffffffffffffffffff161415611bbb576040517f08c379a0000000000000000000000000000000000000000000000000000000008152600401611bb2906137af565b60405180910390fd5b6000611bc5611196565b9050611be5818787611bd6886128ad565b611bdf886128ad565b876123c4565b600080600086815260200190815260200160002060008873ffffffffffffffffffffffffffffffffffffffff1673ffffffffffffffffffffffffffffffffffffffff16815260200190815260200160002054905083811015611c7c576040517f08c379a0000000000000000000000000000000000000000000000000000000008152600401611c73906137ef565b60405180910390fd5b83810360008087815260200190815260200160002060008973ffffffffffffffffffffffffffffffffffffffff1673ffffffffffffffffffffffffffffffffffffffff168152602001908152602001600020819055508360008087815260200190815260200160002060008873ffffffffffffffffffffffffffffffffffffffff1673ffffffffffffffffffffffffffffffffffffffff1681526020019081526020016000206000828254611d319190613a3d565b925050819055508573ffffffffffffffffffffffffffffffffffffffff168773ffffffffffffffffffffffffffffffffffffffff168373ffffffffffffffffffffffffffffffffffffffff167fc3d58168c5ae7397731d063d5bbf3d657854427343f4c083240f7aacaa2d0f628888604051611dae9291906138ea565b60405180910390a4611dc4828888888888612973565b50505050505050565b60007fd9b67a26000000000000000000000000000000000000000000000000000000007bffffffffffffffffffffffffffffffffffffffffffffffffffffffff1916827bffffffffffffffffffffffffffffffffffffffffffffffffffffffff19161480611e9857507f0e89341c000000000000000000000000000000000000000000000000000000007bffffffffffffffffffffffffffffffffffffffffffffffffffffffff1916827bffffffffffffffffffffffffffffffffffffffffffffffffffffffff1916145b80611ea85750611ea782612b5a565b5b9050919050565b606060008690506000869050600086905060008690506000869050600081518351855187518951611ee09190613a3d565b611eea9190613a3d565b611ef49190613a3d565b611efe9190613a3d565b67ffffffffffffffff811115611f3d577f4e487b7100000000000000000000000000000000000000000000000000000000600052604160045260246000fd5b6040519080825280601f01601f191660200182016040528015611f6f5781602001600182028036833780820191505090505b50905060008190506000805b885181101561204f57888181518110611fbd577f4e487b7100000000000000000000000000000000000000000000000000000000600052603260045260246000fd5b602001015160f81c60f81b838380611fd490613c9f565b94508151811061200d577f4e487b7100000000000000000000000000000000000000000000000000000000600052603260045260246000fd5b60200101907effffffffffffffffffffffffffffffffffffffffffffffffffffffffffffff1916908160001a905350808061204790613c9f565b915050611f7b565b5060005b875181101561212757878181518110612095577f4e487b7100000000000000000000000000000000000000000000000000000000600052603260045260246000fd5b602001015160f81c60f81b8383806120ac90613c9f565b9450815181106120e5577f4e487b7100000000000000000000000000000000000000000000000000000000600052603260045260246000fd5b60200101907effffffffffffffffffffffffffffffffffffffffffffffffffffffffffffff1916908160001a905350808061211f90613c9f565b915050612053565b5060005b86518110156121ff5786818151811061216d577f4e487b7100000000000000000000000000000000000000000000000000000000600052603260045260246000fd5b602001015160f81c60f81b83838061218490613c9f565b9450815181106121bd577f4e487b7100000000000000000000000000000000000000000000000000000000600052603260045260246000fd5b60200101907effffffffffffffffffffffffffffffffffffffffffffffffffffffffffffff1916908160001a90535080806121f790613c9f565b91505061212b565b5060005b85518110156122d757858181518110612245577f4e487b7100000000000000000000000000000000000000000000000000000000600052603260045260246000fd5b602001015160f81c60f81b83838061225c90613c9f565b945081518110612295577f4e487b7100000000000000000000000000000000000000000000000000000000600052603260045260246000fd5b60200101907effffffffffffffffffffffffffffffffffffffffffffffffffffffffffffff1916908160001a90535080806122cf90613c9f565b915050612203565b5060005b84518110156123af5784818151811061231d577f4e487b7100000000000000000000000000000000000000000000000000000000600052603260045260246000fd5b602001015160f81c60f81b83838061233490613c9f565b94508151811061236d577f4e487b7100000000000000000000000000000000000000000000000000000000600052603260045260246000fd5b60200101907effffffffffffffffffffffffffffffffffffffffffffffffffffffffffffff1916908160001a90535080806123a790613c9f565b9150506122db565b50819850505050505050505095945050505050565b505050505050565b6123eb8473ffffffffffffffffffffffffffffffffffffffff16612bc4565b156125ab578373ffffffffffffffffffffffffffffffffffffffff1663bc197c8187878686866040518663ffffffff1660e01b815260040161243195949392919061357c565b602060405180830381600087803b15801561244b57600080fd5b505af192505050801561247c57506040513d601f19601f82011682018060405250810190612479919061311e565b60015b61252257612488613dd5565b806308c379a014156124e5575061249d6142bc565b806124a857506124e7565b806040517f08c379a00000000000000000000000000000000000000000000000000000000081526004016124dc91906136cd565b60405180910390fd5b505b6040517f08c379a0000000000000000000000000000000000000000000000000000000008152600401612519906136ef565b60405180910390fd5b63bc197c8160e01b7bffffffffffffffffffffffffffffffffffffffffffffffffffffffff1916817bffffffffffffffffffffffffffffffffffffffffffffffffffffffff1916146125a9576040517f08c379a00000000000000000000000000000000000000000000000000000000081526004016125a09061372f565b60405180910390fd5b505b505050505050565b6060600060028360026125c69190613ac4565b6125d09190613a3d565b67ffffffffffffffff81111561260f577f4e487b7100000000000000000000000000000000000000000000000000000000600052604160045260246000fd5b6040519080825280601f01601f1916602001820160405280156126415781602001600182028036833780820191505090505b5090507f30000000000000000000000000000000000000000000000000000000000000008160008151811061269f577f4e487b7100000000000000000000000000000000000000000000000000000000600052603260045260246000fd5b60200101907effffffffffffffffffffffffffffffffffffffffffffffffffffffffffffff1916908160001a9053507f780000000000000000000000000000000000000000000000000000000000000081600181518110612729577f4e487b7100000000000000000000000000000000000000000000000000000000600052603260045260246000fd5b60200101907effffffffffffffffffffffffffffffffffffffffffffffffffffffffffffff1916908160001a905350600060018460026127699190613ac4565b6127739190613a3d565b90505b600181111561285f577f3031323334353637383961626364656600000000000000000000000000000000600f8616601081106127db577f4e487b7100000000000000000000000000000000000000000000000000000000600052603260045260246000fd5b1a60f81b828281518110612818577f4e487b7100000000000000000000000000000000000000000000000000000000600052603260045260246000fd5b60200101907effffffffffffffffffffffffffffffffffffffffffffffffffffffffffffff1916908160001a905350600485901c94508061285890613c12565b9050612776565b50600084146128a3576040517f08c379a000000000000000000000000000000000000000000000000000000000815260040161289a9061370f565b60405180910390fd5b8091505092915050565b60606000600167ffffffffffffffff8111156128f2577f4e487b7100000000000000000000000000000000000000000000000000000000600052604160045260246000fd5b6040519080825280602002602001820160405280156129205781602001602082028036833780820191505090505b509050828160008151811061295e577f4e487b7100000000000000000000000000000000000000000000000000000000600052603260045260246000fd5b60200260200101818152505080915050919050565b6129928473ffffffffffffffffffffffffffffffffffffffff16612bc4565b15612b52578373ffffffffffffffffffffffffffffffffffffffff1663f23a6e6187878686866040518663ffffffff1660e01b81526004016129d89594939291906135e4565b602060405180830381600087803b1580156129f257600080fd5b505af1925050508015612a2357506040513d601f19601f82011682018060405250810190612a20919061311e565b60015b612ac957612a2f613dd5565b806308c379a01415612a8c5750612a446142bc565b80612a4f5750612a8e565b806040517f08c379a0000000000000000000000000000000000000000000000000000000008152600401612a8391906136cd565b60405180910390fd5b505b6040517f08c379a0000000000000000000000000000000000000000000000000000000008152600401612ac0906136ef565b60405180910390fd5b63f23a6e6160e01b7bffffffffffffffffffffffffffffffffffffffffffffffffffffffff1916817bffffffffffffffffffffffffffffffffffffffffffffffffffffffff191614612b50576040517f08c379a0000000000000000000000000000000000000000000000000000000008152600401612b479061372f565b60405180910390fd5b505b505050505050565b60007f01ffc9a7000000000000000000000000000000000000000000000000000000007bffffffffffffffffffffffffffffffffffffffffffffffffffffffff1916827bffffffffffffffffffffffffffffffffffffffffffffffffffffffff1916149050919050565b6000808273ffffffffffffffffffffffffffffffffffffffff163b119050919050565b6000612bfa612bf584613938565b613913565b90508083825260208201905082856020860282011115612c1957600080fd5b60005b85811015612c495781612c2f8882612cfd565b845260208401935060208301925050600181019050612c1c565b5050509392505050565b6000612c66612c6184613964565b613913565b90508083825260208201905082856020860282011115612c8557600080fd5b60005b85811015612cb55781612c9b8882612de4565b845260208401935060208301925050600181019050612c88565b5050509392505050565b6000612cd2612ccd84613990565b613913565b905082815260208101848484011115612cea57600080fd5b612cf5848285613bd0565b509392505050565b600081359050612d0c81614352565b92915050565b600082601f830112612d2357600080fd5b8135612d33848260208601612be7565b91505092915050565b600082601f830112612d4d57600080fd5b8135612d5d848260208601612c53565b91505092915050565b600081359050612d7581614369565b92915050565b600081359050612d8a81614380565b92915050565b600081359050612d9f81614397565b92915050565b600081519050612db481614397565b92915050565b600082601f830112612dcb57600080fd5b8135612ddb848260208601612cbf565b91505092915050565b600081359050612df3816143ae565b92915050565b600060208284031215612e0b57600080fd5b6000612e1984828501612cfd565b91505092915050565b60008060408385031215612e3557600080fd5b6000612e4385828601612cfd565b9250506020612e5485828601612cfd565b9150509250929050565b600080600080600060a08688031215612e7657600080fd5b6000612e8488828901612cfd565b9550506020612e9588828901612cfd565b945050604086013567ffffffffffffffff811115612eb257600080fd5b612ebe88828901612d3c565b935050606086013567ffffffffffffffff811115612edb57600080fd5b612ee788828901612d3c565b925050608086013567ffffffffffffffff811115612f0457600080fd5b612f1088828901612dba565b9150509295509295909350565b600080600080600060a08688031215612f3557600080fd5b6000612f4388828901612cfd565b9550506020612f5488828901612cfd565b9450506040612f6588828901612de4565b9350506060612f7688828901612de4565b925050608086013567ffffffffffffffff811115612f9357600080fd5b612f9f88828901612dba565b9150509295509295909350565b60008060408385031215612fbf57600080fd5b6000612fcd85828601612cfd565b9250506020612fde85828601612d66565b9150509250929050565b60008060408385031215612ffb57600080fd5b600061300985828601612cfd565b925050602061301a85828601612de4565b9150509250929050565b6000806040838503121561303757600080fd5b600083013567ffffffffffffffff81111561305157600080fd5b61305d85828601612d12565b925050602083013567ffffffffffffffff81111561307a57600080fd5b61308685828601612d3c565b9150509250929050565b6000602082840312156130a257600080fd5b60006130b084828501612d7b565b91505092915050565b600080604083850312156130cc57600080fd5b60006130da85828601612d7b565b92505060206130eb85828601612cfd565b9150509250929050565b60006020828403121561310757600080fd5b600061311584828501612d90565b91505092915050565b60006020828403121561313057600080fd5b600061313e84828501612da5565b91505092915050565b60006020828403121561315957600080fd5b600061316784828501612de4565b91505092915050565b600061317c8383613509565b60208301905092915050565b61319181613b52565b82525050565b60006131a2826139d1565b6131ac81856139ff565b93506131b7836139c1565b8060005b838110156131e85781516131cf8882613170565b97506131da836139f2565b9250506001810190506131bb565b5085935050505092915050565b6131fe81613b64565b82525050565b61320d81613b70565b82525050565b600061321e826139dc565b6132288185613a10565b9350613238818560208601613bdf565b61324181613df7565b840191505092915050565b6000613257826139e7565b6132618185613a21565b9350613271818560208601613bdf565b61327a81613df7565b840191505092915050565b6000613290826139e7565b61329a8185613a32565b93506132aa818560208601613bdf565b80840191505092915050565b60006132c3603483613a21565b91506132ce82613e15565b604082019050919050565b60006132e6602083613a21565b91506132f182613e64565b602082019050919050565b6000613309602883613a21565b915061331482613e8d565b604082019050919050565b600061332c602b83613a21565b915061333782613edc565b604082019050919050565b600061334f602683613a21565b915061335a82613f2b565b604082019050919050565b6000613372602983613a21565b915061337d82613f7a565b604082019050919050565b6000613395602583613a21565b91506133a082613fc9565b604082019050919050565b60006133b8603283613a21565b91506133c382614018565b604082019050919050565b60006133db602a83613a21565b91506133e682614067565b604082019050919050565b60006133fe602083613a21565b9150613409826140b6565b602082019050919050565b6000613421601783613a32565b915061342c826140df565b601782019050919050565b6000613444602983613a21565b915061344f82614108565b604082019050919050565b6000613467602983613a21565b915061347282614157565b604082019050919050565b600061348a602883613a21565b9150613495826141a6565b604082019050919050565b60006134ad602183613a21565b91506134b8826141f5565b604082019050919050565b60006134d0601183613a32565b91506134db82614244565b601182019050919050565b60006134f3602f83613a21565b91506134fe8261426d565b604082019050919050565b61351281613bc6565b82525050565b61352181613bc6565b82525050565b600061353282613414565b915061353e8285613285565b9150613549826134c3565b91506135558284613285565b91508190509392505050565b60006020820190506135766000830184613188565b92915050565b600060a0820190506135916000830188613188565b61359e6020830187613188565b81810360408301526135b08186613197565b905081810360608301526135c48185613197565b905081810360808301526135d88184613213565b90509695505050505050565b600060a0820190506135f96000830188613188565b6136066020830187613188565b6136136040830186613518565b6136206060830185613518565b81810360808301526136328184613213565b90509695505050505050565b600060208201905081810360008301526136588184613197565b905092915050565b6000604082019050818103600083015261367a8185613197565b9050818103602083015261368e8184613197565b90509392505050565b60006020820190506136ac60008301846131f5565b92915050565b60006020820190506136c76000830184613204565b92915050565b600060208201905081810360008301526136e7818461324c565b905092915050565b60006020820190508181036000830152613708816132b6565b9050919050565b60006020820190508181036000830152613728816132d9565b9050919050565b60006020820190508181036000830152613748816132fc565b9050919050565b600060208201905081810360008301526137688161331f565b9050919050565b6000602082019050818103600083015261378881613342565b9050919050565b600060208201905081810360008301526137a881613365565b9050919050565b600060208201905081810360008301526137c881613388565b9050919050565b600060208201905081810360008301526137e8816133ab565b9050919050565b60006020820190508181036000830152613808816133ce565b9050919050565b60006020820190508181036000830152613828816133f1565b9050919050565b6000602082019050818103600083015261384881613437565b9050919050565b600060208201905081810360008301526138688161345a565b9050919050565b600060208201905081810360008301526138888161347d565b9050919050565b600060208201905081810360008301526138a8816134a0565b9050919050565b600060208201905081810360008301526138c8816134e6565b9050919050565b60006020820190506138e46000830184613518565b92915050565b60006040820190506138ff6000830185613518565b61390c6020830184613518565b9392505050565b600061391d61392e565b90506139298282613c6e565b919050565b6000604051905090565b600067ffffffffffffffff82111561395357613952613da6565b5b602082029050602081019050919050565b600067ffffffffffffffff82111561397f5761397e613da6565b5b602082029050602081019050919050565b600067ffffffffffffffff8211156139ab576139aa613da6565b5b6139b482613df7565b9050602081019050919050565b6000819050602082019050919050565b600081519050919050565b600081519050919050565b600081519050919050565b6000602082019050919050565b600082825260208201905092915050565b600082825260208201905092915050565b600082825260208201905092915050565b600081905092915050565b6000613a4882613bc6565b9150613a5383613bc6565b9250827fffffffffffffffffffffffffffffffffffffffffffffffffffffffffffffffff03821115613a8857613a87613d19565b5b828201905092915050565b6000613a9e82613bc6565b9150613aa983613bc6565b925082613ab957613ab8613d48565b5b828204905092915050565b6000613acf82613bc6565b9150613ada83613bc6565b9250817fffffffffffffffffffffffffffffffffffffffffffffffffffffffffffffffff0483118215151615613b1357613b12613d19565b5b828202905092915050565b6000613b2982613bc6565b9150613b3483613bc6565b925082821015613b4757613b46613d19565b5b828203905092915050565b6000613b5d82613ba6565b9050919050565b60008115159050919050565b6000819050919050565b60007fffffffff0000000000000000000000000000000000000000000000000000000082169050919050565b600073ffffffffffffffffffffffffffffffffffffffff82169050919050565b6000819050919050565b82818337600083830152505050565b60005b83811015613bfd578082015181840152602081019050613be2565b83811115613c0c576000848401525b50505050565b6000613c1d82613bc6565b91506000821415613c3157613c30613d19565b5b600182039050919050565b60006002820490506001821680613c5457607f821691505b60208210811415613c6857613c67613d77565b5b50919050565b613c7782613df7565b810181811067ffffffffffffffff82111715613c9657613c95613da6565b5b80604052505050565b6000613caa82613bc6565b91507fffffffffffffffffffffffffffffffffffffffffffffffffffffffffffffffff821415613cdd57613cdc613d19565b5b600182019050919050565b6000613cf382613bc6565b9150613cfe83613bc6565b925082613d0e57613d0d613d48565b5b828206905092915050565b7f4e487b7100000000000000000000000000000000000000000000000000000000600052601160045260246000fd5b7f4e487b7100000000000000000000000000000000000000000000000000000000600052601260045260246000fd5b7f4e487b7100000000000000000000000000000000000000000000000000000000600052602260045260246000fd5b7f4e487b7100000000000000000000000000000000000000000000000000000000600052604160045260246000fd5b600060033d1115613df45760046000803e613df1600051613e08565b90505b90565b6000601f19601f8301169050919050565b60008160e01c9050919050565b7f455243313135353a207472616e7366657220746f206e6f6e204552433131353560008201527f526563656976657220696d706c656d656e746572000000000000000000000000602082015250565b7f537472696e67733a20686578206c656e67746820696e73756666696369656e74600082015250565b7f455243313135353a204552433131353552656365697665722072656a6563746560008201527f6420746f6b656e73000000000000000000000000000000000000000000000000602082015250565b7f455243313135353a2062616c616e636520717565727920666f7220746865207a60008201527f65726f2061646472657373000000000000000000000000000000000000000000602082015250565b7f4f776e61626c653a206e6577206f776e657220697320746865207a65726f206160008201527f6464726573730000000000000000000000000000000000000000000000000000602082015250565b7f455243313135353a2063616c6c6572206973206e6f74206f776e6572206e6f7260008201527f20617070726f7665640000000000000000000000000000000000000000000000602082015250565b7f455243313135353a207472616e7366657220746f20746865207a65726f20616460008201527f6472657373000000000000000000000000000000000000000000000000000000602082015250565b7f455243313135353a207472616e736665722063616c6c6572206973206e6f742060008201527f6f776e6572206e6f7220617070726f7665640000000000000000000000000000602082015250565b7f455243313135353a20696e73756666696369656e742062616c616e636520666f60008201527f72207472616e7366657200000000000000000000000000000000000000000000602082015250565b7f4f776e61626c653a2063616c6c6572206973206e6f7420746865206f776e6572600082015250565b7f416363657373436f6e74726f6c3a206163636f756e7420000000000000000000600082015250565b7f455243313135353a2073657474696e6720617070726f76616c2073746174757360008201527f20666f722073656c660000000000000000000000000000000000000000000000602082015250565b7f455243313135353a206163636f756e747320616e6420696473206c656e67746860008201527f206d69736d617463680000000000000000000000000000000000000000000000602082015250565b7f455243313135353a2069647320616e6420616d6f756e7473206c656e6774682060008201527f6d69736d61746368000000000000000000000000000000000000000000000000602082015250565b7f455243313135353a206d696e7420746f20746865207a65726f2061646472657360008201527f7300000000000000000000000000000000000000000000000000000000000000602082015250565b7f206973206d697373696e6720726f6c6520000000000000000000000000000000600082015250565b7f416363657373436f6e74726f6c3a2063616e206f6e6c792072656e6f756e636560008201527f20726f6c657320666f722073656c660000000000000000000000000000000000602082015250565b600060443d10156142cc5761434f565b6142d461392e565b60043d036004823e80513d602482011167ffffffffffffffff821117156142fc57505061434f565b808201805167ffffffffffffffff81111561431a575050505061434f565b80602083010160043d03850181111561433757505050505061434f565b61434682602001850186613c6e565b82955050505050505b90565b61435b81613b52565b811461436657600080fd5b50565b61437281613b64565b811461437d57600080fd5b50565b61438981613b70565b811461439457600080fd5b50565b6143a081613b7a565b81146143ab57600080fd5b50565b6143b781613bc6565b81146143c257600080fd5b5056fea2646970667358221220a03987332793ede2d331abe20f1f744ddda63ae141e5777c805c748ffb6c689d64736f6c6343000801003368747470733a2f2f6261667962656968683472717961787a3274636f73786772766e327a7178376970366f736e6a3632676f723666756769696173776a7937737478692e697066732e6e667473746f726167652e6c696e6b2f6d657461646174612f7b69647d",
  "linkReferences": {},
  "deployedLinkReferences": {}
}