{
  "_format": "hh-sol-artifact-1",
  "contractName": "NFT",
  "sourceName": "contracts/NFT.sol",
  "abi": [
    {
      "inputs": [],
      "stateMutability": "nonpayable",
      "type": "constructor"
    },
    {
      "anonymous": false,
      "inputs": [
        {
          "indexed": true,
          "internalType": "address",
          "name": "account",
          "type": "address"
        },
        {
          "indexed": true,
          "internalType": "address",
          "name": "operator",
          "type": "address"
        },
        {
          "indexed": false,
          "internalType": "bool",
          "name": "approved",
          "type": "bool"
        }
      ],
      "name": "ApprovalForAll",
      "type": "event"
    },
    {
      "anonymous": false,
      "inputs": [
        {
          "indexed": true,
          "internalType": "address",
          "name": "operator",
          "type": "address"
        },
        {
          "indexed": true,
          "internalType": "address",
          "name": "from",
          "type": "address"
        },
        {
          "indexed": true,
          "internalType": "address",
          "name": "to",
          "type": "address"
        },
        {
          "indexed": false,
          "internalType": "uint256[]",
          "name": "ids",
          "type": "uint256[]"
        },
        {
          "indexed": false,
          "internalType": "uint256[]",
          "name": "values",
          "type": "uint256[]"
        }
      ],
      "name": "TransferBatch",
      "type": "event"
    },
    {
      "anonymous": false,
      "inputs": [
        {
          "indexed": true,
          "internalType": "address",
          "name": "operator",
          "type": "address"
        },
        {
          "indexed": true,
          "internalType": "address",
          "name": "from",
          "type": "address"
        },
        {
          "indexed": true,
          "internalType": "address",
          "name": "to",
          "type": "address"
        },
        {
          "indexed": false,
          "internalType": "uint256",
          "name": "id",
          "type": "uint256"
        },
        {
          "indexed": false,
          "internalType": "uint256",
          "name": "value",
          "type": "uint256"
        }
      ],
      "name": "TransferSingle",
      "type": "event"
    },
    {
      "anonymous": false,
      "inputs": [
        {
          "indexed": false,
          "internalType": "string",
          "name": "value",
          "type": "string"
        },
        {
          "indexed": true,
          "internalType": "uint256",
          "name": "id",
          "type": "uint256"
        }
      ],
      "name": "URI",
      "type": "event"
    },
    {
      "inputs": [
        {
          "internalType": "address",
          "name": "account",
          "type": "address"
        },
        {
          "internalType": "uint256",
          "name": "id",
          "type": "uint256"
        }
      ],
      "name": "balanceOf",
      "outputs": [
        {
          "internalType": "uint256",
          "name": "",
          "type": "uint256"
        }
      ],
      "stateMutability": "view",
      "type": "function"
    },
    {
      "inputs": [
        {
          "internalType": "address[]",
          "name": "accounts",
          "type": "address[]"
        },
        {
          "internalType": "uint256[]",
          "name": "ids",
          "type": "uint256[]"
        }
      ],
      "name": "balanceOfBatch",
      "outputs": [
        {
          "internalType": "uint256[]",
          "name": "",
          "type": "uint256[]"
        }
      ],
      "stateMutability": "view",
      "type": "function"
    },
    {
      "inputs": [],
      "name": "baseTokenURI",
      "outputs": [
        {
          "internalType": "string",
          "name": "",
          "type": "string"
        }
      ],
      "stateMutability": "view",
      "type": "function"
    },
    {
      "inputs": [
        {
          "internalType": "address",
          "name": "account",
          "type": "address"
        },
        {
          "internalType": "address",
          "name": "operator",
          "type": "address"
        }
      ],
      "name": "isApprovedForAll",
      "outputs": [
        {
          "internalType": "bool",
          "name": "",
          "type": "bool"
        }
      ],
      "stateMutability": "view",
      "type": "function"
    },
    {
      "inputs": [
        {
          "internalType": "address",
          "name": "recipient",
          "type": "address"
        }
      ],
      "name": "mintTo",
      "outputs": [
        {
          "internalType": "uint256",
          "name": "",
          "type": "uint256"
        }
      ],
      "stateMutability": "nonpayable",
      "type": "function"
    },
    {
      "inputs": [
        {
          "internalType": "address",
          "name": "from",
          "type": "address"
        },
        {
          "internalType": "address",
          "name": "to",
          "type": "address"
        },
        {
          "internalType": "uint256[]",
          "name": "ids",
          "type": "uint256[]"
        },
        {
          "internalType": "uint256[]",
          "name": "amounts",
          "type": "uint256[]"
        },
        {
          "internalType": "bytes",
          "name": "data",
          "type": "bytes"
        }
      ],
      "name": "safeBatchTransferFrom",
      "outputs": [],
      "stateMutability": "nonpayable",
      "type": "function"
    },
    {
      "inputs": [
        {
          "internalType": "address",
          "name": "from",
          "type": "address"
        },
        {
          "internalType": "address",
          "name": "to",
          "type": "address"
        },
        {
          "internalType": "uint256",
          "name": "id",
          "type": "uint256"
        },
        {
          "internalType": "uint256",
          "name": "amount",
          "type": "uint256"
        },
        {
          "internalType": "bytes",
          "name": "data",
          "type": "bytes"
        }
      ],
      "name": "safeTransferFrom",
      "outputs": [],
      "stateMutability": "nonpayable",
      "type": "function"
    },
    {
      "inputs": [
        {
          "internalType": "address",
          "name": "operator",
          "type": "address"
        },
        {
          "internalType": "bool",
          "name": "approved",
          "type": "bool"
        }
      ],
      "name": "setApprovalForAll",
      "outputs": [],
      "stateMutability": "nonpayable",
      "type": "function"
    },
    {
      "inputs": [
        {
          "internalType": "string",
          "name": "_baseTokenURI",
          "type": "string"
        }
      ],
      "name": "setBaseTokenURI",
      "outputs": [],
      "stateMutability": "nonpayable",
      "type": "function"
    },
    {
      "inputs": [
        {
          "internalType": "bytes4",
          "name": "interfaceId",
          "type": "bytes4"
        }
      ],
      "name": "supportsInterface",
      "outputs": [
        {
          "internalType": "bool",
          "name": "",
          "type": "bool"
        }
      ],
      "stateMutability": "view",
      "type": "function"
    },
    {
      "inputs": [
        {
          "internalType": "uint256",
          "name": "_id",
          "type": "uint256"
        }
      ],
      "name": "tokenUri",
      "outputs": [
        {
          "internalType": "string",
          "name": "",
          "type": "string"
        }
      ],
      "stateMutability": "view",
      "type": "function"
    },
    {
      "inputs": [
        {
          "internalType": "uint256",
          "name": "",
          "type": "uint256"
        }
      ],
      "name": "uri",
      "outputs": [
        {
          "internalType": "string",
          "name": "",
          "type": "string"
        }
      ],
      "stateMutability": "view",
      "type": "function"
    }
  ],
  "bytecode": "0x60806040523480156200001157600080fd5b5060048054620000219062000189565b80601f01602080910402602001604051908101604052809291908181526020018280546200004f9062000189565b8015620000a05780601f106200007457610100808354040283529160200191620000a0565b820191906000526020600020905b8154815290600101906020018083116200008257829003601f168201915b5050505050620000b681620000bd60201b60201c565b50620001ee565b8060029080519060200190620000d5929190620000d9565b5050565b828054620000e79062000189565b90600052602060002090601f0160209004810192826200010b576000855562000157565b82601f106200012657805160ff191683800117855562000157565b8280016001018555821562000157579182015b828111156200015657825182559160200191906001019062000139565b5b5090506200016691906200016a565b5090565b5b80821115620001855760008160009055506001016200016b565b5090565b60006002820490506001821680620001a257607f821691505b60208210811415620001b957620001b8620001bf565b5b50919050565b7f4e487b7100000000000000000000000000000000000000000000000000000000600052602260045260246000fd5b6134aa80620001fe6000396000f3fe608060405234801561001057600080fd5b50600436106100b35760003560e01c80634e1273f4116100715780634e1273f4146101b0578063755edd17146101e0578063a22cb46514610210578063d547cfb71461022c578063e985e9c51461024a578063f242432a1461027a576100b3565b8062fdd58e146100b857806301ffc9a7146100e85780630e89341c146101185780631675f455146101485780632eb2c2d61461017857806330176e1314610194575b600080fd5b6100d260048036038101906100cd919061247e565b610296565b6040516100df9190612b3f565b60405180910390f35b61010260048036038101906100fd9190612526565b61035f565b60405161010f91906129a2565b60405180910390f35b610132600480360381019061012d91906125b9565b610441565b60405161013f91906129bd565b60405180910390f35b610162600480360381019061015d91906125b9565b6104d5565b60405161016f91906129bd565b60405180910390f35b610192600480360381019061018d91906122f4565b61057a565b005b6101ae60048036038101906101a99190612578565b61061b565b005b6101ca60048036038101906101c591906124ba565b61063e565b6040516101d79190612949565b60405180910390f35b6101fa60048036038101906101f5919061228f565b6107ef565b6040516102079190612b3f565b60405180910390f35b61022a60048036038101906102259190612442565b610854565b005b61023461086a565b60405161024191906129bd565b60405180910390f35b610264600480360381019061025f91906122b8565b6108f8565b60405161027191906129a2565b60405180910390f35b610294600480360381019061028f91906123b3565b61098c565b005b60008073ffffffffffffffffffffffffffffffffffffffff168373ffffffffffffffffffffffffffffffffffffffff161415610307576040517f08c379a00000000000000000000000000000000000000000000000000000000081526004016102fe90612a1f565b60405180910390fd5b60008083815260200190815260200160002060008473ffffffffffffffffffffffffffffffffffffffff1673ffffffffffffffffffffffffffffffffffffffff16815260200190815260200160002054905092915050565b60007fd9b67a26000000000000000000000000000000000000000000000000000000007bffffffffffffffffffffffffffffffffffffffffffffffffffffffff1916827bffffffffffffffffffffffffffffffffffffffffffffffffffffffff1916148061042a57507f0e89341c000000000000000000000000000000000000000000000000000000007bffffffffffffffffffffffffffffffffffffffffffffffffffffffff1916827bffffffffffffffffffffffffffffffffffffffffffffffffffffffff1916145b8061043a575061043982610a2d565b5b9050919050565b60606002805461045090612e44565b80601f016020809104026020016040519081016040528092919081815260200182805461047c90612e44565b80156104c95780601f1061049e576101008083540402835291602001916104c9565b820191906000526020600020905b8154815290600101906020018083116104ac57829003601f168201915b50505050509050919050565b6060610573600480546104e790612e44565b80601f016020809104026020016040519081016040528092919081815260200182805461051390612e44565b80156105605780601f1061053557610100808354040283529160200191610560565b820191906000526020600020905b81548152906001019060200180831161054357829003601f168201915b505050505061056e84610a97565b610c44565b9050919050565b610582610c88565b73ffffffffffffffffffffffffffffffffffffffff168573ffffffffffffffffffffffffffffffffffffffff1614806105c857506105c7856105c2610c88565b6108f8565b5b610607576040517f08c379a00000000000000000000000000000000000000000000000000000000081526004016105fe90612a7f565b60405180910390fd5b6106148585858585610c90565b5050505050565b8060049080519060200190610631929190611f87565b5061063b81610ff0565b50565b60608151835114610684576040517f08c379a000000000000000000000000000000000000000000000000000000000815260040161067b90612adf565b60405180910390fd5b6000835167ffffffffffffffff8111156106c7577f4e487b7100000000000000000000000000000000000000000000000000000000600052604160045260246000fd5b6040519080825280602002602001820160405280156106f55781602001602082028036833780820191505090505b50905060005b84518110156107e45761078e858281518110610740577f4e487b7100000000000000000000000000000000000000000000000000000000600052603260045260246000fd5b6020026020010151858381518110610781577f4e487b7100000000000000000000000000000000000000000000000000000000600052603260045260246000fd5b6020026020010151610296565b8282815181106107c7577f4e487b7100000000000000000000000000000000000000000000000000000000600052603260045260246000fd5b602002602001018181525050806107dd90612ea7565b90506106fb565b508091505092915050565b60006107fb600361100a565b60006108076003611020565b905061084b8382600a6040518060400160405280600181526020017f200000000000000000000000000000000000000000000000000000000000000081525061102e565b80915050919050565b61086661085f610c88565b83836111c4565b5050565b6004805461087790612e44565b80601f01602080910402602001604051908101604052809291908181526020018280546108a390612e44565b80156108f05780601f106108c5576101008083540402835291602001916108f0565b820191906000526020600020905b8154815290600101906020018083116108d357829003601f168201915b505050505081565b6000600160008473ffffffffffffffffffffffffffffffffffffffff1673ffffffffffffffffffffffffffffffffffffffff16815260200190815260200160002060008373ffffffffffffffffffffffffffffffffffffffff1673ffffffffffffffffffffffffffffffffffffffff16815260200190815260200160002060009054906101000a900460ff16905092915050565b610994610c88565b73ffffffffffffffffffffffffffffffffffffffff168573ffffffffffffffffffffffffffffffffffffffff1614806109da57506109d9856109d4610c88565b6108f8565b5b610a19576040517f08c379a0000000000000000000000000000000000000000000000000000000008152600401610a1090612a3f565b60405180910390fd5b610a268585858585611331565b5050505050565b60007f01ffc9a7000000000000000000000000000000000000000000000000000000007bffffffffffffffffffffffffffffffffffffffffffffffffffffffff1916827bffffffffffffffffffffffffffffffffffffffffffffffffffffffff1916149050919050565b60606000821415610adf576040518060400160405280600181526020017f30000000000000000000000000000000000000000000000000000000000000008152509050610c3f565b600082905060005b60008214610b11578080610afa90612ea7565b915050600a82610b0a9190612d29565b9150610ae7565b60008167ffffffffffffffff811115610b53577f4e487b7100000000000000000000000000000000000000000000000000000000600052604160045260246000fd5b6040519080825280601f01601f191660200182016040528015610b855781602001600182028036833780820191505090505b5090505b60008514610c3857600182610b9e9190612d5a565b9150600a85610bad9190612ef0565b6030610bb99190612cd3565b60f81b818381518110610bf5577f4e487b7100000000000000000000000000000000000000000000000000000000600052603260045260246000fd5b60200101907effffffffffffffffffffffffffffffffffffffffffffffffffffffffffffff1916908160001a905350600a85610c319190612d29565b9450610b89565b8093505050505b919050565b6060610c8083836040518060200160405280600081525060405180602001604052806000815250604051806020016040528060008152506115b3565b905092915050565b600033905090565b8151835114610cd4576040517f08c379a0000000000000000000000000000000000000000000000000000000008152600401610ccb90612aff565b60405180910390fd5b600073ffffffffffffffffffffffffffffffffffffffff168473ffffffffffffffffffffffffffffffffffffffff161415610d44576040517f08c379a0000000000000000000000000000000000000000000000000000000008152600401610d3b90612a5f565b60405180910390fd5b6000610d4e610c88565b9050610d5e818787878787611ac8565b60005b8451811015610f5b576000858281518110610da5577f4e487b7100000000000000000000000000000000000000000000000000000000600052603260045260246000fd5b602002602001015190506000858381518110610dea577f4e487b7100000000000000000000000000000000000000000000000000000000600052603260045260246000fd5b60200260200101519050600080600084815260200190815260200160002060008b73ffffffffffffffffffffffffffffffffffffffff1673ffffffffffffffffffffffffffffffffffffffff16815260200190815260200160002054905081811015610e8b576040517f08c379a0000000000000000000000000000000000000000000000000000000008152600401610e8290612a9f565b60405180910390fd5b81810360008085815260200190815260200160002060008c73ffffffffffffffffffffffffffffffffffffffff1673ffffffffffffffffffffffffffffffffffffffff168152602001908152602001600020819055508160008085815260200190815260200160002060008b73ffffffffffffffffffffffffffffffffffffffff1673ffffffffffffffffffffffffffffffffffffffff1681526020019081526020016000206000828254610f409190612cd3565b9250508190555050505080610f5490612ea7565b9050610d61565b508473ffffffffffffffffffffffffffffffffffffffff168673ffffffffffffffffffffffffffffffffffffffff168273ffffffffffffffffffffffffffffffffffffffff167f4a39dc06d4c0dbc64b70af90fd698a233a518aa5d07e595d983b8c0526c8f7fb8787604051610fd292919061296b565b60405180910390a4610fe8818787878787611ad0565b505050505050565b8060029080519060200190611006929190611f87565b5050565b6001816000016000828254019250508190555050565b600081600001549050919050565b600073ffffffffffffffffffffffffffffffffffffffff168473ffffffffffffffffffffffffffffffffffffffff16141561109e576040517f08c379a000000000000000000000000000000000000000000000000000000000815260040161109590612b1f565b60405180910390fd5b60006110a8610c88565b90506110c9816000876110ba88611cb7565b6110c388611cb7565b87611ac8565b8260008086815260200190815260200160002060008773ffffffffffffffffffffffffffffffffffffffff1673ffffffffffffffffffffffffffffffffffffffff16815260200190815260200160002060008282546111289190612cd3565b925050819055508473ffffffffffffffffffffffffffffffffffffffff16600073ffffffffffffffffffffffffffffffffffffffff168273ffffffffffffffffffffffffffffffffffffffff167fc3d58168c5ae7397731d063d5bbf3d657854427343f4c083240f7aacaa2d0f6287876040516111a6929190612b5a565b60405180910390a46111bd81600087878787611d7d565b5050505050565b8173ffffffffffffffffffffffffffffffffffffffff168373ffffffffffffffffffffffffffffffffffffffff161415611233576040517f08c379a000000000000000000000000000000000000000000000000000000000815260040161122a90612abf565b60405180910390fd5b80600160008573ffffffffffffffffffffffffffffffffffffffff1673ffffffffffffffffffffffffffffffffffffffff16815260200190815260200160002060008473ffffffffffffffffffffffffffffffffffffffff1673ffffffffffffffffffffffffffffffffffffffff16815260200190815260200160002060006101000a81548160ff0219169083151502179055508173ffffffffffffffffffffffffffffffffffffffff168373ffffffffffffffffffffffffffffffffffffffff167f17307eab39ab6107e8899845ad3d59bd9653f200f220920489ca2b5937696c318360405161132491906129a2565b60405180910390a3505050565b600073ffffffffffffffffffffffffffffffffffffffff168473ffffffffffffffffffffffffffffffffffffffff1614156113a1576040517f08c379a000000000000000000000000000000000000000000000000000000000815260040161139890612a5f565b60405180910390fd5b60006113ab610c88565b90506113cb8187876113bc88611cb7565b6113c588611cb7565b87611ac8565b600080600086815260200190815260200160002060008873ffffffffffffffffffffffffffffffffffffffff1673ffffffffffffffffffffffffffffffffffffffff16815260200190815260200160002054905083811015611462576040517f08c379a000000000000000000000000000000000000000000000000000000000815260040161145990612a9f565b60405180910390fd5b83810360008087815260200190815260200160002060008973ffffffffffffffffffffffffffffffffffffffff1673ffffffffffffffffffffffffffffffffffffffff168152602001908152602001600020819055508360008087815260200190815260200160002060008873ffffffffffffffffffffffffffffffffffffffff1673ffffffffffffffffffffffffffffffffffffffff16815260200190815260200160002060008282546115179190612cd3565b925050819055508573ffffffffffffffffffffffffffffffffffffffff168773ffffffffffffffffffffffffffffffffffffffff168373ffffffffffffffffffffffffffffffffffffffff167fc3d58168c5ae7397731d063d5bbf3d657854427343f4c083240f7aacaa2d0f628888604051611594929190612b5a565b60405180910390a46115aa828888888888611d7d565b50505050505050565b6060600086905060008690506000869050600086905060008690506000815183518551875189516115e49190612cd3565b6115ee9190612cd3565b6115f89190612cd3565b6116029190612cd3565b67ffffffffffffffff811115611641577f4e487b7100000000000000000000000000000000000000000000000000000000600052604160045260246000fd5b6040519080825280601f01601f1916602001820160405280156116735781602001600182028036833780820191505090505b50905060008190506000805b8851811015611753578881815181106116c1577f4e487b7100000000000000000000000000000000000000000000000000000000600052603260045260246000fd5b602001015160f81c60f81b8383806116d890612ea7565b945081518110611711577f4e487b7100000000000000000000000000000000000000000000000000000000600052603260045260246000fd5b60200101907effffffffffffffffffffffffffffffffffffffffffffffffffffffffffffff1916908160001a905350808061174b90612ea7565b91505061167f565b5060005b875181101561182b57878181518110611799577f4e487b7100000000000000000000000000000000000000000000000000000000600052603260045260246000fd5b602001015160f81c60f81b8383806117b090612ea7565b9450815181106117e9577f4e487b7100000000000000000000000000000000000000000000000000000000600052603260045260246000fd5b60200101907effffffffffffffffffffffffffffffffffffffffffffffffffffffffffffff1916908160001a905350808061182390612ea7565b915050611757565b5060005b865181101561190357868181518110611871577f4e487b7100000000000000000000000000000000000000000000000000000000600052603260045260246000fd5b602001015160f81c60f81b83838061188890612ea7565b9450815181106118c1577f4e487b7100000000000000000000000000000000000000000000000000000000600052603260045260246000fd5b60200101907effffffffffffffffffffffffffffffffffffffffffffffffffffffffffffff1916908160001a90535080806118fb90612ea7565b91505061182f565b5060005b85518110156119db57858181518110611949577f4e487b7100000000000000000000000000000000000000000000000000000000600052603260045260246000fd5b602001015160f81c60f81b83838061196090612ea7565b945081518110611999577f4e487b7100000000000000000000000000000000000000000000000000000000600052603260045260246000fd5b60200101907effffffffffffffffffffffffffffffffffffffffffffffffffffffffffffff1916908160001a90535080806119d390612ea7565b915050611907565b5060005b8451811015611ab357848181518110611a21577f4e487b7100000000000000000000000000000000000000000000000000000000600052603260045260246000fd5b602001015160f81c60f81b838380611a3890612ea7565b945081518110611a71577f4e487b7100000000000000000000000000000000000000000000000000000000600052603260045260246000fd5b60200101907effffffffffffffffffffffffffffffffffffffffffffffffffffffffffffff1916908160001a9053508080611aab90612ea7565b9150506119df565b50819850505050505050505095945050505050565b505050505050565b611aef8473ffffffffffffffffffffffffffffffffffffffff16611f64565b15611caf578373ffffffffffffffffffffffffffffffffffffffff1663bc197c8187878686866040518663ffffffff1660e01b8152600401611b35959493929190612887565b602060405180830381600087803b158015611b4f57600080fd5b505af1925050508015611b8057506040513d601f19601f82011682018060405250810190611b7d919061254f565b60015b611c2657611b8c612fdd565b806308c379a01415611be95750611ba1613382565b80611bac5750611beb565b806040517f08c379a0000000000000000000000000000000000000000000000000000000008152600401611be091906129bd565b60405180910390fd5b505b6040517f08c379a0000000000000000000000000000000000000000000000000000000008152600401611c1d906129df565b60405180910390fd5b63bc197c8160e01b7bffffffffffffffffffffffffffffffffffffffffffffffffffffffff1916817bffffffffffffffffffffffffffffffffffffffffffffffffffffffff191614611cad576040517f08c379a0000000000000000000000000000000000000000000000000000000008152600401611ca4906129ff565b60405180910390fd5b505b505050505050565b60606000600167ffffffffffffffff811115611cfc577f4e487b7100000000000000000000000000000000000000000000000000000000600052604160045260246000fd5b604051908082528060200260200182016040528015611d2a5781602001602082028036833780820191505090505b5090508281600081518110611d68577f4e487b7100000000000000000000000000000000000000000000000000000000600052603260045260246000fd5b60200260200101818152505080915050919050565b611d9c8473ffffffffffffffffffffffffffffffffffffffff16611f64565b15611f5c578373ffffffffffffffffffffffffffffffffffffffff1663f23a6e6187878686866040518663ffffffff1660e01b8152600401611de29594939291906128ef565b602060405180830381600087803b158015611dfc57600080fd5b505af1925050508015611e2d57506040513d601f19601f82011682018060405250810190611e2a919061254f565b60015b611ed357611e39612fdd565b806308c379a01415611e965750611e4e613382565b80611e595750611e98565b806040517f08c379a0000000000000000000000000000000000000000000000000000000008152600401611e8d91906129bd565b60405180910390fd5b505b6040517f08c379a0000000000000000000000000000000000000000000000000000000008152600401611eca906129df565b60405180910390fd5b63f23a6e6160e01b7bffffffffffffffffffffffffffffffffffffffffffffffffffffffff1916817bffffffffffffffffffffffffffffffffffffffffffffffffffffffff191614611f5a576040517f08c379a0000000000000000000000000000000000000000000000000000000008152600401611f51906129ff565b60405180910390fd5b505b505050505050565b6000808273ffffffffffffffffffffffffffffffffffffffff163b119050919050565b828054611f9390612e44565b90600052602060002090601f016020900481019282611fb55760008555611ffc565b82601f10611fce57805160ff1916838001178555611ffc565b82800160010185558215611ffc579182015b82811115611ffb578251825591602001919060010190611fe0565b5b509050612009919061200d565b5090565b5b8082111561202657600081600090555060010161200e565b5090565b600061203d61203884612ba8565b612b83565b9050808382526020820190508285602086028201111561205c57600080fd5b60005b8581101561208c5781612072888261217e565b84526020840193506020830192505060018101905061205f565b5050509392505050565b60006120a96120a484612bd4565b612b83565b905080838252602082019050828560208602820111156120c857600080fd5b60005b858110156120f857816120de888261227a565b8452602084019350602083019250506001810190506120cb565b5050509392505050565b600061211561211084612c00565b612b83565b90508281526020810184848401111561212d57600080fd5b612138848285612e02565b509392505050565b600061215361214e84612c31565b612b83565b90508281526020810184848401111561216b57600080fd5b612176848285612e02565b509392505050565b60008135905061218d81613418565b92915050565b600082601f8301126121a457600080fd5b81356121b484826020860161202a565b91505092915050565b600082601f8301126121ce57600080fd5b81356121de848260208601612096565b91505092915050565b6000813590506121f68161342f565b92915050565b60008135905061220b81613446565b92915050565b60008151905061222081613446565b92915050565b600082601f83011261223757600080fd5b8135612247848260208601612102565b91505092915050565b600082601f83011261226157600080fd5b8135612271848260208601612140565b91505092915050565b6000813590506122898161345d565b92915050565b6000602082840312156122a157600080fd5b60006122af8482850161217e565b91505092915050565b600080604083850312156122cb57600080fd5b60006122d98582860161217e565b92505060206122ea8582860161217e565b9150509250929050565b600080600080600060a0868803121561230c57600080fd5b600061231a8882890161217e565b955050602061232b8882890161217e565b945050604086013567ffffffffffffffff81111561234857600080fd5b612354888289016121bd565b935050606086013567ffffffffffffffff81111561237157600080fd5b61237d888289016121bd565b925050608086013567ffffffffffffffff81111561239a57600080fd5b6123a688828901612226565b9150509295509295909350565b600080600080600060a086880312156123cb57600080fd5b60006123d98882890161217e565b95505060206123ea8882890161217e565b94505060406123fb8882890161227a565b935050606061240c8882890161227a565b925050608086013567ffffffffffffffff81111561242957600080fd5b61243588828901612226565b9150509295509295909350565b6000806040838503121561245557600080fd5b60006124638582860161217e565b9250506020612474858286016121e7565b9150509250929050565b6000806040838503121561249157600080fd5b600061249f8582860161217e565b92505060206124b08582860161227a565b9150509250929050565b600080604083850312156124cd57600080fd5b600083013567ffffffffffffffff8111156124e757600080fd5b6124f385828601612193565b925050602083013567ffffffffffffffff81111561251057600080fd5b61251c858286016121bd565b9150509250929050565b60006020828403121561253857600080fd5b6000612546848285016121fc565b91505092915050565b60006020828403121561256157600080fd5b600061256f84828501612211565b91505092915050565b60006020828403121561258a57600080fd5b600082013567ffffffffffffffff8111156125a457600080fd5b6125b084828501612250565b91505092915050565b6000602082840312156125cb57600080fd5b60006125d98482850161227a565b91505092915050565b60006125ee8383612869565b60208301905092915050565b61260381612d8e565b82525050565b600061261482612c72565b61261e8185612ca0565b935061262983612c62565b8060005b8381101561265a57815161264188826125e2565b975061264c83612c93565b92505060018101905061262d565b5085935050505092915050565b61267081612da0565b82525050565b600061268182612c7d565b61268b8185612cb1565b935061269b818560208601612e11565b6126a481612fff565b840191505092915050565b60006126ba82612c88565b6126c48185612cc2565b93506126d4818560208601612e11565b6126dd81612fff565b840191505092915050565b60006126f5603483612cc2565b91506127008261301d565b604082019050919050565b6000612718602883612cc2565b91506127238261306c565b604082019050919050565b600061273b602b83612cc2565b9150612746826130bb565b604082019050919050565b600061275e602983612cc2565b91506127698261310a565b604082019050919050565b6000612781602583612cc2565b915061278c82613159565b604082019050919050565b60006127a4603283612cc2565b91506127af826131a8565b604082019050919050565b60006127c7602a83612cc2565b91506127d2826131f7565b604082019050919050565b60006127ea602983612cc2565b91506127f582613246565b604082019050919050565b600061280d602983612cc2565b915061281882613295565b604082019050919050565b6000612830602883612cc2565b915061283b826132e4565b604082019050919050565b6000612853602183612cc2565b915061285e82613333565b604082019050919050565b61287281612df8565b82525050565b61288181612df8565b82525050565b600060a08201905061289c60008301886125fa565b6128a960208301876125fa565b81810360408301526128bb8186612609565b905081810360608301526128cf8185612609565b905081810360808301526128e38184612676565b90509695505050505050565b600060a08201905061290460008301886125fa565b61291160208301876125fa565b61291e6040830186612878565b61292b6060830185612878565b818103608083015261293d8184612676565b90509695505050505050565b600060208201905081810360008301526129638184612609565b905092915050565b600060408201905081810360008301526129858185612609565b905081810360208301526129998184612609565b90509392505050565b60006020820190506129b76000830184612667565b92915050565b600060208201905081810360008301526129d781846126af565b905092915050565b600060208201905081810360008301526129f8816126e8565b9050919050565b60006020820190508181036000830152612a188161270b565b9050919050565b60006020820190508181036000830152612a388161272e565b9050919050565b60006020820190508181036000830152612a5881612751565b9050919050565b60006020820190508181036000830152612a7881612774565b9050919050565b60006020820190508181036000830152612a9881612797565b9050919050565b60006020820190508181036000830152612ab8816127ba565b9050919050565b60006020820190508181036000830152612ad8816127dd565b9050919050565b60006020820190508181036000830152612af881612800565b9050919050565b60006020820190508181036000830152612b1881612823565b9050919050565b60006020820190508181036000830152612b3881612846565b9050919050565b6000602082019050612b546000830184612878565b92915050565b6000604082019050612b6f6000830185612878565b612b7c6020830184612878565b9392505050565b6000612b8d612b9e565b9050612b998282612e76565b919050565b6000604051905090565b600067ffffffffffffffff821115612bc357612bc2612fae565b5b602082029050602081019050919050565b600067ffffffffffffffff821115612bef57612bee612fae565b5b602082029050602081019050919050565b600067ffffffffffffffff821115612c1b57612c1a612fae565b5b612c2482612fff565b9050602081019050919050565b600067ffffffffffffffff821115612c4c57612c4b612fae565b5b612c5582612fff565b9050602081019050919050565b6000819050602082019050919050565b600081519050919050565b600081519050919050565b600081519050919050565b6000602082019050919050565b600082825260208201905092915050565b600082825260208201905092915050565b600082825260208201905092915050565b6000612cde82612df8565b9150612ce983612df8565b9250827fffffffffffffffffffffffffffffffffffffffffffffffffffffffffffffffff03821115612d1e57612d1d612f21565b5b828201905092915050565b6000612d3482612df8565b9150612d3f83612df8565b925082612d4f57612d4e612f50565b5b828204905092915050565b6000612d6582612df8565b9150612d7083612df8565b925082821015612d8357612d82612f21565b5b828203905092915050565b6000612d9982612dd8565b9050919050565b60008115159050919050565b60007fffffffff0000000000000000000000000000000000000000000000000000000082169050919050565b600073ffffffffffffffffffffffffffffffffffffffff82169050919050565b6000819050919050565b82818337600083830152505050565b60005b83811015612e2f578082015181840152602081019050612e14565b83811115612e3e576000848401525b50505050565b60006002820490506001821680612e5c57607f821691505b60208210811415612e7057612e6f612f7f565b5b50919050565b612e7f82612fff565b810181811067ffffffffffffffff82111715612e9e57612e9d612fae565b5b80604052505050565b6000612eb282612df8565b91507fffffffffffffffffffffffffffffffffffffffffffffffffffffffffffffffff821415612ee557612ee4612f21565b5b600182019050919050565b6000612efb82612df8565b9150612f0683612df8565b925082612f1657612f15612f50565b5b828206905092915050565b7f4e487b7100000000000000000000000000000000000000000000000000000000600052601160045260246000fd5b7f4e487b7100000000000000000000000000000000000000000000000000000000600052601260045260246000fd5b7f4e487b7100000000000000000000000000000000000000000000000000000000600052602260045260246000fd5b7f4e487b7100000000000000000000000000000000000000000000000000000000600052604160045260246000fd5b600060033d1115612ffc5760046000803e612ff9600051613010565b90505b90565b6000601f19601f8301169050919050565b60008160e01c9050919050565b7f455243313135353a207472616e7366657220746f206e6f6e204552433131353560008201527f526563656976657220696d706c656d656e746572000000000000000000000000602082015250565b7f455243313135353a204552433131353552656365697665722072656a6563746560008201527f6420746f6b656e73000000000000000000000000000000000000000000000000602082015250565b7f455243313135353a2062616c616e636520717565727920666f7220746865207a60008201527f65726f2061646472657373000000000000000000000000000000000000000000602082015250565b7f455243313135353a2063616c6c6572206973206e6f74206f776e6572206e6f7260008201527f20617070726f7665640000000000000000000000000000000000000000000000602082015250565b7f455243313135353a207472616e7366657220746f20746865207a65726f20616460008201527f6472657373000000000000000000000000000000000000000000000000000000602082015250565b7f455243313135353a207472616e736665722063616c6c6572206973206e6f742060008201527f6f776e6572206e6f7220617070726f7665640000000000000000000000000000602082015250565b7f455243313135353a20696e73756666696369656e742062616c616e636520666f60008201527f72207472616e7366657200000000000000000000000000000000000000000000602082015250565b7f455243313135353a2073657474696e6720617070726f76616c2073746174757360008201527f20666f722073656c660000000000000000000000000000000000000000000000602082015250565b7f455243313135353a206163636f756e747320616e6420696473206c656e67746860008201527f206d69736d617463680000000000000000000000000000000000000000000000602082015250565b7f455243313135353a2069647320616e6420616d6f756e7473206c656e6774682060008201527f6d69736d61746368000000000000000000000000000000000000000000000000602082015250565b7f455243313135353a206d696e7420746f20746865207a65726f2061646472657360008201527f7300000000000000000000000000000000000000000000000000000000000000602082015250565b600060443d101561339257613415565b61339a612b9e565b60043d036004823e80513d602482011167ffffffffffffffff821117156133c2575050613415565b808201805167ffffffffffffffff8111156133e05750505050613415565b80602083010160043d0385018111156133fd575050505050613415565b61340c82602001850186612e76565b82955050505050505b90565b61342181612d8e565b811461342c57600080fd5b50565b61343881612da0565b811461344357600080fd5b50565b61344f81612dac565b811461345a57600080fd5b50565b61346681612df8565b811461347157600080fd5b5056fea26469706673582212208c96703fad3b79e9387b200f9f9afe8eb843f44bfb7fd90f432d2968a394788564736f6c63430008010033",
  "linkReferences": {},
  "deployedLinkReferences": {}
}